:1000000000800020BD010000F9120000BD120000B8
:10001000BD120000BD120000BD120000BD120000A4
:10002000BD120000BD120000BD120000F912000058
:10003000F9120000BD120000F9120000AD1200001C
:10004000F9120000F9120000F9120000F912000084
:10005000F9120000F9120000F9120000F912000074
:10006000F9120000F9120000F9120000F912000064
:10007000F9120000F9120000F9120000F912000054
:10008000F9120000F9120000F9120000F912000044
:10009000F9120000F9120000F9120000F912000034
:1000A000F9120000F9120000F9120000F912000024
:1000B000F9120000F9120000F9120000F912000014
:1000C000F9120000F9120000F9120000F912000004
:1000D000F9120000F9120000F9120000F9120000F4
:1000E000F9120000F9120000F9120000F9120000E4
:1000F000F912000005350000F9120000BD1B0000D8
:10010000F9120000813A0000F9120000F912000013
:10011000F9120000F9120000F9120000F9120000B3
:10012000F9120000F9120000F9120000F9120000A3
:10013000F9120000F9120000F9120000F912000093
:10014000F9120000F9120000F9120000F912000083
:10015000F9120000F9120000F9120000F912000073
:10016000F9120000A51E0000F9120000F9120000AB
:10017000F9120000F9120000F9120000F912000053
:10018000F9120000F9120000F9120000F912000043
:10019000F9120000F9120000F9120000F912000033
:1001A000F9120000F9120000F9120000F912000023
:1001B000F9120000F9120000F9120000574B4CF23E
:1001C000205210B51A804DF628121A8000BF00BFC9
:1001D00001F096F8524B4FF010621A60514A9A6043
:1001E000514ADA60A3F53043203B1A6812F480725A
:1001F00004D14E490A604FF4A8521A604C4B1A7849
:10020000110703D51A7842F008021A70494B4A4C7C
:100210004A482A221A704A4A00239918A14203D256
:10022000195899500433F8E7464B474900228B424E
:1002300002D243F8042BFAE74448454900235A58B0
:100240001A500433B3F5DE7FF9D1424B424A802184
:1002500003F8011B9342FBD1404B3C4A1A60404BD0
:100260008A221A70A3F5805324225A70A0221A7091
:100270009A799207FCD59A79D406FCD4394A9379B5
:1002800003F00C03082B374BF9D103221A714C22CF
:100290005A719A799006FCD5324A9179314B4906C8
:1002A000FBD5314A4FF001711160042151602022C9
:1002B0001A709A7902F00C020C2AFAD12B4B2C4AB4
:1002C0001A602C4B2C4A1A6000225A60072243F80D
:1002D000042C2A4AC3F80C2D62B601F0F1F8134B36
:1002E0001B68DA0705D5264801F03CF8254B264A5D
:1002F0001A60264B1B785B0609D5224C224A2368DC
:10030000934204D11E4801F02DF80023236003F02E
:1003100021FD00F0FBFF02F05FFCFEE70E20054030
:1003200030800440823F04000100002B14D00340C1
:1003300002D0074000E007401488FF1F9C410000E6
:100340006087FF1F1488FF1F8C94FF1F0082FF1F10
:100350000000000000E400E05FE400E008ED00E0E1
:1003600000500640004006404480044004800440A1
:10037000C010050014E000E07F32020000002020E1
:100380000377A8041CE00340A5C3945A00F007407B
:10039000FFFFFFFFFFFFFFFFFFFFFFFFFFFFFFFF6D
:1003A000FFFFFFFFFFFFFFFFFFFFFFFFFFFFFFFF5D
:1003B000FFFFFFFFFFFFFFFFFFFFFFFFFFFFFFFF4D
:1003C000FFFFFFFFFFFFFFFFFFFFFFFFFFFFFFFF3D
:1003D000FFFFFFFFFFFFFFFFFFFFFFFFFFFFFFFF2D
:1003E000FFFFFFFFFFFFFFFFFFFFFFFFFFFFFFFF1D
:1003F000FFFFFFFFFFFFFFFFFFFFFFFFFFFFFFFF0D
:10040000FFFFFFFFFFFFFFFFFFFFFFFFDEF9FFFF23
:1004100010B5054C237833B9044B13B10448AFF33E
:1004200000800123237010BD1488FF1F000000000E
:100430009C41000008B5064B1BB106480649AFF3C6
:1004400000800648036813B1054B03B1984708BD07
:10045000000000009C4100001888FF1F1488FF1F47
:10046000000000004069704710B582B00A460023C2
:100470008DF800308DF801308DF802300468246862
:100480008DF804308DF805308DF80630694601ABE3
:10049000A04702B010BD00BF00207047F0B589B082
:1004A000847C0191029203921A788DF816205A7872
:1004B0008DF817209B788DF81830012C39D1294AF6
:1004C0001378013303F00703137003F00105ED0106
:1004D00013F0020F1CBF45F04005EDB213F0040FFE
:1004E00018BF45F020051035EDB20DF1150306AF2C
:1004F00000264FF4807E013319461A7822B19EFB04
:10050000F2F20132D2B200E0324601F8032C02FBD3
:100510000554C4F3072414B901F8066C02E0013C49
:1005200001F8064C12B1013A01F8032CBB42E2D1AA
:100530000CE000238DF815308DF814308DF8133051
:100540008DF812308DF811308DF8103003238DF8AE
:1005500019300023079303689B6901A9984709B0E4
:10056000F0BD00BF3088FF1F10B504460D200121EB
:1005700000F02CFF0B20012100F028FFA06910B132
:1005800003685B68984710BDF0B589B0847C019121
:10059000029203921A788DF816205A788DF8172057
:1005A0009B788DF81830012C39D1284A1378013303
:1005B00003F00703137003F00105ED0113F0020FC0
:1005C0001CBF45F04005EDB213F0040F18BF45F015
:1005D00020051035EDB20DF1150306AF00264FF4DE
:1005E000807E013319461A7822B19EFBF2F2013265
:1005F000D2B200E0324601F8032C02FB0554C4F3EA
:10060000072414B901F8066C02E0013C01F8064C1D
:1006100012B1013A01F8032CBB42E2D10CE00023F5
:100620008DF815308DF814308DF813308DF81230A8
:100630008DF811308DF8103000238DF819300793A4
:1006400003689B6901A9984709B0F0BD3088FF1F76
:100650002DE9F84305460E46806910B103681B6812
:100660009847604B202018605F4940220A6000BF15
:1006700000BF00BF1A6018600A6000BF00BF00BF63
:100680001A6018600A6000BF00BF00BF1A601860DF
:100690000A6000BF00BF00BF1A6018600A6000BF98
:1006A00000BF00BF1A6018600A6000BF00BF00BF33
:1006B0001A6018600A6000BF00BF00BF1A601860AF
:1006C0000A6000BF00BF00BF1A6018600A6000BF68
:1006D00000BF00BF1A6018600A6000BF00BF00BF03
:1006E0001A6018600A6000BF00BF00BF1A6018607F
:1006F0000A6000BF00BF00BF1A6018600A6000BF38
:1007000000BF00BF1A6018600A6000BF00BF00BFD2
:100710001A6018600A6000BF00BF00BF1A6018604E
:100720000A6000BF00BF00BF1A6018600A6000BF07
:1007300000BF00BF1A6018600A6000BF00BF00BFA2
:100740001A6018600A6000BF00BF00BF1A6018601E
:100750000A6000BF00BF00BF1A6018600A6000BFD7
:1007600000BF00BF1A6018600A6000BF00BF00BF72
:100770001A6018600A6000BF00BF00BF1A601860EE
:100780000A6000BF00BF00BF1A6018600A6000BFA7
:1007900000BF00BF1A6018600A6000BF00BF00BF42
:1007A0001A6018600A6000BF00BF00BF1A601860BE
:1007B0000A6000BF00BF00BF1A6018600A6000BF77
:1007C00000BF00BF1A6018600A6000BF00BF00BF12
:1007D0001A6018600A6000BF00BF00BF1A6018608E
:1007E0000A6003E088F00F4084F00F4000BF00BFB4
:1007F00000BF1A60B368002B40F384814FF0000CF7
:100800000A4601464023584C3768BF7837B196F8FE
:100810000E8087FA58F75FFA87F800E0E046377DE8
:1008200007FB0888C8F3072848F47F481160136065
:1008300000BF00BF00BF23601160136000BF00BF96
:1008400000BF23601160136000BF00BF00BF2360C2
:100850001160136000BF00BF00BF23601160136010
:1008600000BF00BF00BF23601160136000BF00BF66
:1008700000BF23601160136000BF00BF00BF236092
:100880001160136000BF00BF00BF23605FFA88F7EC
:1008900018F0800F14BF10602060136000BF00BF0D
:1008A00000BF236017F0400F14BF1060206013607A
:1008B00000BF00BF00BF236017F0200F14BF1060FF
:1008C0002060136000BF00BF00BF236017F0100F4F
:1008D00014BF10602060136000BF00BF00BF236022
:1008E00017F0080F14BF10602060136000BF00BF36
:1008F00000BF236017F0040F14BF10602060136066
:1009000000BF00BF00BF236017F0020F14BF1060CC
:100910002060136000BF00BF00BF236017F0010F0D
:1009200014BF10602060136000BF00BF00BF2360D1
:10093000376897F80180B8F1000F06D096F80D904F
:1009400088FA59F85FFA88F800E0E04696F81390C4
:1009500009FB088808F47F493F783FB196F80C807E
:1009600087FA58F7FFB202E088F00F40674696F822
:10097000128008FB0777C7F3072848EA09084FEAFF
:1009800018295FFA89F719F0800F14BF10602060F2
:10099000136000BF00BF00BF236017F0400F14BFFB
:1009A00010602060136000BF00BF00BF236017F01D
:1009B000200F14BF10602060136000BF00BF00BF95
:1009C000236017F0100F14BF10602060136000BF89
:1009D00000BF00BF236017F0080F14BF1060206035
:1009E000136000BF00BF00BF236017F0040F14BFE7
:1009F00010602060136000BF00BF00BF236017F0CD
:100A0000020F14BF10602060136000BF00BF00BF62
:100A1000236017F0010F14BF10602060136000BF47
:100A200000BF00BF23605FFA88F718F0800F14BF83
:100A300010602060136000BF00BF00BF236017F08C
:100A4000400F14BF10602060136000BF00BF00BFE4
:100A5000236017F0200F14BF10602060136000BFE8
:100A600000BF00BF236017F0100F14BF106020609C
:100A7000136000BF00BF00BF236017F0080F14BF52
:100A800010602060136000BF00BF00BF236017F03C
:100A9000040F14BF10602060136000BF00BF00BFD0
:100AA000236017F0020F14BF10602060136000BFB6
:100AB00000BF00BF236017F0010F14BF106020605B
:100AC000136000BF00BF00BF236096F80F80377B24
:100AD000C7EB0807377396F81080777BC7EB0807DA
:100AE000777396F81180B77BC7EB0807B77396F951
:100AF0001580376847443760B768013FB760002FFB
:100B00003FF782AE70680028B8BF1F30401102491D
:100B100020244023014A03E084F00F4088F00F4076
:100B20000C600B6000BF00BF00BF13600C600B6067
:100B300000BF00BF00BF13600C600B6000BF00BFB0
:100B400000BF13600C600B6000BF00BF00BF1360EC
:100B50000C600B6000BF00BF00BF13600C600B6037
:100B600000BF00BF00BF13600C600B6000BF00BF80
:100B700000BF13600C600B6000BF00BF00BF1360BC
:100B800014600B6000BF00BF00BF136014600B60F7
:100B900000BF00BF00BF136014600B6000BF00BF48
:100BA00000BF136014600B6000BF00BF00BF136084
:100BB00014600B6000BF00BF00BF136014600B60C7
:100BC00000BF00BF00BF136014600B6000BF00BF18
:100BD00000BF136014600B6000BF00BF00BF136054
:100BE00014600B6000BF00BF00BF136014600B6097
:100BF00000BF00BF00BF136014600B6000BF00BFE8
:100C000000BF136014600B6000BF00BF00BF136023
:100C100014600B6000BF00BF00BF136014600B6066
:100C200000BF00BF00BF136014600B6000BF00BFB7
:100C300000BF136014600B6000BF00BF00BF1360F3
:100C400014600B6000BF00BF00BF136014600B6036
:100C500000BF00BF00BF136014600B6000BF00BF87
:100C600000BF136014600B6000BF00BF00BF1360C3
:100C700014600B6000BF00BF00BF136014600B6006
:100C800000BF00BF00BF136014600B6000BF00BF57
:100C900000BF136014600B6000BF00BF00BF136093
:100CA0000138B0F1FF3F7FF43BAFA86910B1036892
:100CB0005B689847BDE8F88310B582B0482000F023
:100CC0005BFC2E48642102F003F8642000F0E2FB94
:100CD0002B4C23685B6820462A490B229847204604
:100CE00001F082FF284B1B6813F0010F26D1264824
:100CF00000F00EFB10B3254B00215960FF221A7340
:100D00005A739A73DA731A745A7401229A74596175
:100D100099601F4B1B6813B91C4A1D4B1A601D4B71
:100D20001B680BB1194A9A60184B1A4A13601A4A89
:100D30001A6000229A61144800F0F0FA134817492B
:100D40004FF43472002300F089FA154B1B680193AD
:100D5000019A144B1A600F23134A13600024134A9C
:100D60001460134A13602046012100F02FFB204637
:100D7000214600F007FB02B010BD00BF2093FF1F0B
:100D80003093FF1F703E00005088FF1F3488FF1F04
:100D90009891FF1FA891FF1F503E00005888FF1F29
:100DA000AC91FF1F7C91FF1F6891FF1F6091FF1F97
:100DB000C890FF1F70B582B0234B1B6833BB00F097
:100DC00073FE04281EDD03E000F06EFE042836DD0D
:100DD00000F07AFE0628F7D100F076FE852811D1C2
:100DE00000F072FE184C206000F06EFE174B186089
:100DF00000F06AFE164B18602368902B06D0002086
:100E000020601EE0104B1B680020D3B100F01EFBD9
:100E10000024104E104D30462919C4F1900201F003
:100E200059FF04448F2CF6D90022074B1A600B4B54
:100E30001B680193019A0A4B1A60012001E000200F
:100E4000FFE702B070BD00BF7091FF1F8491FF1FCC
:100E50005488FF1F2093FF1FD090FF1FAC91FF1FEE
:100E60006491FF1F2DE9F04186B000F01DFE0028BF
:100E700058DDFFF79FFF002854D08D4B1E688D4B27
:100E80001B685A1C96420ED00EB90E2B0BD08A4B03
:100E90001B781BB10022884B1A7036E0874B1A680A
:100EA00001321A6031E0864B1B689E422DDB854A79
:100EB000D2F800C003EB0C02964226DAC3EB060818
:100EC000814A08EB4800000100EB40007F4B1844CA
:100ED0000023174655789478D95DC154C1184D70D8
:100EE0008C7003320333902BF4D10CF1FF3CC445DA
:100EF0000BD1774B1846197800F034F901226E4B6C
:100F00001A70744B1A6801321A606A4B1E60724B79
:100F10001A68D2F1010238BF00221A606F4B1A68BA
:100F200001321A606E4B1B680093009B6D4A126879
:100F300002F57A729A4280F0B7806B4C23685B6846
:100F400020466A490C229847644D2046296801F0E2
:100F500097FE23685B68204665490A2298472B68FC
:100F600003EBC3012046C1F395110A22002301F0CF
:100F70004BFE23685B6820465E49112298474F4F1D
:100F80002046396801F07CFE23685B6820465A4998
:100F9000072298474F4E2046316801F071FE2046E7
:100FA00001F022FE00232B603B604E4A116801F5E0
:100FB0007A71116033604A4B1B680193019A4F4B61
:100FC0001B6803F57A7191426ED2454A126802920B
:100FD000029AD31A4A4AA2FB0302D20920464FF4CE
:100FE000FA6101FB12310A22002301F00DFE2046B6
:100FF00001F0FAFD354B03F66D010022DA701A712B
:101000005A7103338B42F9D1354B1B680393039913
:101010003A4B1B68C91A3A4AA2FB0102D2094FF4A3
:10102000FA6002FB1012B2F57A7F2CBF0021322148
:10103000264A1170002151709170294A1268049259
:101040000499C91A2E4AA2FB0102D2094FF4FA6090
:1010500002FB1012B2F57A7F2CBF322100211B4A0D
:1010600082F88413002182F8851382F886131C4AC3
:1010700012680592059AD21A214BA3FB0213DB09D1
:1010800003FB1023B3F57A7F2CBF322200220F4BD3
:1010900083F80827002283F8092783F80A270C4BD6
:1010A0001846197800F05EF806B0BDE8F08100BF80
:1010B0008491FF1F7891FF1F8091FF1F7491FF1F84
:1010C0006091FF1FC890FF1FD090FF1F5888FF1F1F
:1010D0008891FF1F6C91FF1F6087FF1FCC90FF1F3F
:1010E000AC91FF1F7C91FF1F3093FF1F7C3E0000DF
:1010F0008C3E0000983E0000AC3E00006491FF1F53
:10110000D34D6210FF22027000224280C2604FF075
:10111000FF328260704700BF30B482B00E4A13685D
:101120005C1C14608B4214DB0C4A13680093009D16
:101130004FF47A7101FB04F4094B1968691AB4FB86
:10114000F1F1418000200449086012680192019A7F
:101150001A6002B030BC70479C91FF1FAC91FF1F1A
:10116000A491FF1F2DE9F04F83B080468A462E4C94
:10117000D8F804303BB100F069F92368C01AD8F8F8
:1011800004209042F4D300F061F9274B1860D8F89E
:101190000C3023B15046D8F8081098478246234BAC
:1011A0001C68002C39D0002694F81290B8F8023050
:1011B000632B98BFA6742368D3F804C06168626982
:1011C0008DF804608DF805608DF80660BAF1000FA7
:1011D0001BD004F10B05334604F10C0B15F8017F0D
:1011E000CBEB050E04F10F001EF8000057B148B11B
:1011F000013700FB07770AFB07F0000C0DF1040E26
:1012000003F80E000133032BE8D1204601ABE04781
:1012100084F81290A468002CC6D140461921FFF72B
:101220007BFF03B0BDE8F08FA091FF1F9891FF1FD7
:101230004AB181B1084B93FBF1F143688B422CBF5B
:1012400043604160704721B1034B93FBF1F1416072
:10125000704700234360704740420F00F8B50446D2
:101260000F4615461E1EDCBF1646002503689B6808
:10127000984705EB45052F446760666123685B6905
:1012800020469847014603480122FFF7D1FF204638
:10129000F8BD00BF8891FF1F0020704708B50248C5
:1012A000FFF730FF08BD00BF8891FF1F024B1A688F
:1012B00001321A60704700BFAC91FF1F08B50D4C9A
:1012C000236813F4802F01D000F0ECFD236813F4A1
:1012D000806F01D002F016F9236813F4006F01D07B
:1012E00000F06CFC236813F4805FE9D002F0C8FBC7
:1012F000E6E700BF3480044008B5FFF7DFFF00BF1A
:101300001022014B1A80704700200540704700BF33
:101310000078D0F1010038BF00207047012303702E
:10132000704700BFEFF31383ABB9EFF31083ABB992
:10133000EFF3058323B10F2B05D9094A985C03E02D
:101340004FF4807000E00020EFF311833BB1834243
:1013500038BF184670474FF0FF3070470020704785
:10136000F0E300E0044B00221A6004490A60044ADA
:10137000106010221A60704714D0034004D003405C
:1013800000D0034021281ED80F4B53F8303093F87B
:10139000802212F0FF0F08D019B1012283F88020BB
:1013A0007047012283F800217047074B03EBC00010
:1013B000436821B11A6842F003021A6070471A6844
:1013C00022F002021A607047B43E000021283AD889
:1013D0001D4B03EBC0035B68012919D0042925D0FC
:1013E000194A52F83020002082F8800219B94FF4CF
:1013F00080721A607047022903D140F203121A600A
:10140000704703290CBF4FF4817200221A607047A5
:101410000D4A52F83020012182F880124FF4A27256
:101420001A601A6822F020021A607047064A52F8C1
:101430003020012182F880124FF4A2721A601A68DB
:1014400042F020021A607047B43E000072B60D4BA5
:101450001B680D4A12680D49096862B611F0806F69
:1014600002D0322B88BF0132C3F50C3303F27F2345
:101470000749A1FB03035B094FF47A7000FB0230BC
:10148000704700BF18E000E0AC91FF1F04ED00E0E2
:10149000398EE33838B50546FFF7D8FF044625B93D
:1014A00038BD013D0AD004F57A74FFF7CFFF001B69
:1014B000B0F57A7FF5D201F053FCF6E738BD00BFF6
:1014C00010B5264B4FF400021A604FF080721A607C
:1014D0004FF000721A604FF080621A604FF00062A5
:1014E0001A6000201E4B18604BF6FF710433196020
:1014F00028231C4A13600832136008321360083234
:101500001360083213600832136008321360083227
:1015100013600922144C226004F5805404342060C6
:10152000043421600434236008342360143C2260B6
:1015300004F5FE24043420600C4801600C490B6063
:1015400008310B600B4B1A6001F02CFC4FF4C87093
:10155000FFF7A0FF01F026F810BD00BF08E100E092
:10156000048003400C8003400080034008800B404F
:101570000C800B4000800B40254B1A6842F400623F
:101580001A600023234A1370234A1370234A1370EE
:10159000234A1370234A1370234B1B78092B02D064
:1015A0001A2B05D008E040F21332204B1A6003E0FA
:1015B00040F213321E4B1A601E4B1B780A2B02D0CE
:1015C0001F2B05D008E04FF451721B4B1A6003E04B
:1015D0004FF45172194B1A60C0F34432184B1A7011
:1015E000C0F347125A7000F01F00987204229A70DC
:1015F0000221D9745A7588221A743C22DA7040226A
:10160000104B1A704FF40042A3F22B331A6070474C
:10161000348004402092FF1FB591FF1F2892FF1FC6
:101620002192FF1FB491FF1F6487FF1F0CB004407D
:1016300004D004406587FF1F10B0044000D0044070
:1016400000B006402FE400E0164B9B7803F0EC035B
:1016500000F00302134310F0040F18BF43F010030F
:10166000104A937000F00F03042B04D113469279B3
:1016700042F040029A710B4B5A7902F0EF0210F0DF
:10168000100F18BF42F01002064B5A719B7903F0FD
:10169000EF0310F0200F18BF43F01003014A9371BD
:1016A000704700BF00B0064010B5224B1B6813F412
:1016B000006F3ED0204B1B7813F0FF0F06D01E4C5E
:1016C00001F04EFB237813F0FF0FF9D14FF40042E5
:1016D0001A4B1A6000221A4BDA701A4B1B78092B2E
:1016E00002D01A2B05D008E040F20312164B1A6004
:1016F00003E040F20312154B1A60154B1B7803F000
:101700007F030A2B02D01F2B05D008E040F2031202
:10171000104B1A6003E040F203120F4B1A600023D3
:101720000E4A13700E4A13700E4B1B680BB1012248
:101730001A7010BD34800440B491FF1F84E100E0B2
:1017400000B006406487FF1F0CB0044004D0044082
:101750006587FF1F10B0044000D004402092FF1F97
:10176000B591FF1FB091FF1F10B50446094A1378C9
:1017700013F0FF0FFBD120460121FFF727FE204683
:101780000021FFF7FFFD044B53F83420034B1A6090
:1017900010BD00BFB491FF1FB43E00002492FF1F94
:1017A00010B40C4609B140F08000184B1B789842E9
:1017B00028D0174A126812F4006F21D003F07F037B
:1017C0000A2B02D01F2B04D006E00022114B1A6016
:1017D00002E00022104B1A60002C0CBF4422602251
:1017E00000F07F030A2B02D01F2B05D008E042F443
:1017F0004072084B1A6003E042F44072064B1A60D4
:10180000024B18705DF8044B704700BF6587FF1FDF
:101810003480044010B0044000D00440124B1B78C8
:10182000984220D0114A126812F4006F19D0092B87
:1018300002D01A2B04D006E000220D4B1A6002E001
:1018400000220C4B1A60092802D01A2805D008E0A3
:1018500040F21332064B1A6003E040F21332054B9C
:101860001A60014B187070476487FF1F3480044072
:101870000CB0044004D0044010B50D4B1B6813F4A9
:10188000006F12D021280CD80A4C0B4B53F8303083
:1018900023600121FFF79AFD236800221A700120BE
:1018A00010BD0020034B186010BD002010BD00BF0C
:1018B00034800440B091FF1FB43E00000D4B1B6804
:1018C00013F4006F13D017280AD140F202320A4BEA
:1018D0001A600A4B5A7B42F001025A73012070478A
:1018E000064B5A7B02F0FE025A730020704700201C
:1018F000704700BF3480044008B0044000B0064088
:101900002DE9F04107461F4B1B6813F4006F37D0D9
:101910001D4B1B680BB101221A701C4B1C78013443
:10192000282C28BF00241A4D1A4EDFF86C8017E0CF
:10193000FFF7F8FC40280FDC337913F0800F0FD04D
:101940002B780133282B28BF002318F80320D2B2AC
:10195000F271DBB22B7003E0FF2801DD01F000FA29
:101960002B78DBB29C42E3D0FFB20B4B1F55012218
:101970000A4B1A70E4B2054B1C70BC22054BDA709E
:10198000BDE8F081348004402492FF1F2892FF1F9D
:101990002192FF1F00B00640B891FF1FB491FF1FB6
:1019A0002DE9F84F0746284B1B6813F4006F49D008
:1019B000264B1B680BB101221A7007EB010B5F4528
:1019C0003DD2DFF89890224EDFF88C80DFF890A0AF
:1019D00099F800400134282C28BF00243578EDB256
:1019E000A54220D1BC2388F80330FFF79BFC402898
:1019F00011DC98F8043013F0800F10D033780133E5
:101A0000282B28BF00231AF80320D2B288F8072019
:101A1000DBB2337003E0FF2801DD01F0A1F9337878
:101A2000DBB29D42E1D017F8013B0AF804300122F5
:101A3000084B1A70E4B289F800405F45C8D1BC2257
:101A4000054BDA70BDE8F88F348004402492FF1F04
:101A50002192FF1FB491FF1F00B006402892FF1F84
:101A6000B891FF1F10B5064B1B7813F0FF0F06D07F
:101A7000034C01F075F9237813F0FF0FF9D110BD75
:101A8000B491FF1F064B1B78DBB2064A1278D2B224
:101A900093422CBF273202F1FF32D01A704700BFA9
:101AA0002892FF1F2192FF1F054B1878C0B2054BEB
:101AB0001B78DBB2984238BF4030C01A704700BF75
:101AC0002092FF1FB591FF1F10B4184B1A78D2B2A5
:101AD000174B1B78DBB29A4218D001333F2B18D832
:101AE0001449C85CC0B2DCB211490C7012490968D3
:101AF000C9B19A4203D300E00023D31A01E0403277
:101B0000D31A1A2B0FDC00230B700CE04FF0FF30C0
:101B100009E0084B1878C0B20021054B1970064B3C
:101B200019680029E8D15DF8044B70472092FF1F27
:101B3000B591FF1FE091FF1FB091FF1F094B1A786D
:101B4000D2B2094B1B78DBB29A4207D00133402B4B
:101B500028BF0023054AD05CC0B270474FF0FF3069
:101B6000704700BF2092FF1FB591FF1FE091FF1F3C
:101B70000D4B1B6813F4006F14D00C4BDA7802F095
:101B8000CB02DA7040225A74DA7842F03402DA700A
:101B9000074B1A78D2B2074B1A70074B1B680BB170
:101BA00000221A70704700BF3480044000B0064025
:101BB000B591FF1F2092FF1FB091FF1F70B43D4BE6
:101BC0001B7913F0300F33D072B63A4B9B7D03F084
:101BD000FF022BB9374BDA7940225A7462B627E0FC
:101BE00062B6354B1978C9B2344B1C78E4B2314D2A
:101BF000334EEB79D8B24B1C402B28BF0023A342B5
:101C00001CBFF0541946531E13F0FF02F1D1CAB2A3
:101C1000294B1A702B4B1B6853B1A1422EBFC4EB4A
:101C20000101C4F1400409192729C4BF01221A7017
:101C3000204BDA78D2B212F0800F27D01B7913F044
:101C4000800F23D0204B1C78E4B2204B1B78DBB2F2
:101C50009C4210D017491E4D01E0A3420BD0013326
:101C6000282B28BF00230879E85CC0B2C871087D22
:101C7000C0B20728F1D9DBB214490B700D4B1B79A8
:101C800013F0800F02D07C210A4BD97012F0400F64
:101C90000ED0084B1B7913F0400F09D000220D4BDA
:101CA0001A700D4B1B6803B11A703C22014BDA709D
:101CB00070BC704700B006402092FF1FB591FF1F17
:101CC000E091FF1FB091FF1F2892FF1F2192FF1F7D
:101CD000B891FF1FB491FF1F2492FF1F30B40E4B29
:101CE0001B7843F002020D4C04EBC20460600C4808
:101CF000007800280CBF8824C82444EA0141074D1D
:101D000045F8321080F00100054A107083F001039D
:101D1000014A137030BC70479492FF1F0080FF1F70
:101D20000D93FF1F10B4431E032B11D872B60A4A3D
:101D300052F8230050B14268074941F82320074A6E
:101D400032F813400188611A22F8131062B600E0DD
:101D500000205DF8044B70478492FF1F7894FF1FAA
:101D6000013803280DD872B6074B53F820302BB139
:101D7000002001305B68002BFBD100E0002062B640
:101D800070470020704700BFD892FF1F38B572B669
:101D900001231B491B4C5A1812F8012C12F0080F92
:101DA00024D09A0054F832506DB9164B03EBC2019F
:101DB00008304860144943F83210144B1A78013A3D
:101DC0001A7062B638BD42F0010254F832506DB953
:101DD0000C4B03EBC201083048600D4943F8321048
:101DE0000A4B1A78013A1A7062B638BD0133052BD6
:101DF000D1D162B60022054B1A7000F037FC38BD15
:101E0000584000000080FF1F880040000293FF1F21
:101E1000C800400010B4431E032B37D8400140F0E7
:101E200010001C4A104472B61B4AD25C032A09D81F
:101E3000DFE802F019021B050830022216E0083024
:101E4000042213E0154A52F823201AB9134A42F823
:101E5000231003E0124A52F823205160104A42F83E
:101E6000231062B612E0032200E005220A4CE2547D
:101E700001F10803436000F00803002B0CBF882326
:101E8000C8230A8843EA0243036062B65DF8044B44
:101E9000704700BF0080FF1F4092FF1FD892FF1FB6
:101EA000E892FF1F2DE9F84FA34CDFF8E092DFF82E
:101EB000E0A2DFF8E0B22578EDB215F0040F1DD0F6
:101EC0009E4B1B7813F0FF0F16D09D4B1B7803F031
:101ED000FF022BB1531EDBB2994A137003B900BE47
:101EE000984B1B7803F0FF0233B1531EDBB2954AC7
:101EF00013700BB900F018FD0423237015F0080FC0
:101F000000F0E48299F80030DBB21D0940F0218234
:101F10008D4D9E0805EBC6035A6855F83630C3F35D
:101F20008303013B0C2B00F21082DFE813F0CB019E
:101F3000CB010E020E020E020E020E020E02E8018C
:101F40000E020E020E020D00804913680B605268EB
:101F50004A607F4A45F8362000227E490A607A4965
:101F60000A618A6101217C4A11709BB240F2816250
:101F7000934218D8B3F5D06F2ED2B3F5817F00F01D
:101F80001E8106D8802B00F0C980822B00F0CC8007
:101F900066E140F20232934200F02681B3F5A06F71
:101FA00000F062815CE142F22102934200F08681FE
:101FB00007D8B3F5086F00F0AB80B3F5106F11D000
:101FC0004EE142F22122934200F0418142F221325D
:101FD000934200F0498143E1604B5D68002D40F081
:101FE000188130E1594B9A78544B1A70564D05F1CF
:101FF00080062B6A13F0800F03D0686A083800F05F
:1020000035FB0835B542F4D1DFF88C810026374620
:10201000534AB05828B1456800F028FB0DB1284656
:10202000F9E700234E4973504E4AB3504E4BF058D7
:1020300028B1456800F01AFB0DB12846F9E70023E6
:1020400049497350494AB35028F8023F484BFB5C5A
:10205000023B032B0AD8DFE803F002060206002247
:10206000434BDA5502E00122414BDA550137043681
:10207000102ECDD100223F4B1A7001253E4EDFF8C5
:102080001C81314F05EB080313F8013C06F8043BB3
:1020900013F0080F2DD000F0C9FA48B1A90007EBE2
:1020A000451200F108035360344A47F8312007E035
:1020B000AB00002247F833202E4B1A7801321A70F9
:1020C00000F0B4FA58B1AB0043F0010307EBC301D1
:1020D00000F108024A601E4A47F8332009E0AB00CD
:1020E00043F00103002247F83320224B1A780132D3
:1020F0001A70AA0042F00201002347F8313042F082
:10210000030247F8323001351D4B9E42BAD11EE220
:102110000A4B1B781B4D2B700127AAE0194D002399
:102120002B706B700227A4E0084B9B88042B37D9D7
:102130000F22154B1A70C1E0802007400C93FF1F3F
:102140009592FF1F0E93FF1F0080FF1FF892FF1F45
:10215000C80040002C92FF1F0D93FF1F5C40000041
:102160008492FF1F3092FF1FD892FF1FE892FF1F3B
:102170004092FF1F0293FF1FC420074088004000C9
:10218000D42007400493FF1FC02007409020074041
:1021900094200740982007407694FF1F5840000085
:1021A000A04A0021117051709F4A12F8233013F099
:1021B000020F5CD09B4D01232B70022759E09B4BF3
:1021C0009B8803F07F03042B02DC984A52881AB1E3
:1021D0000F22954B1A7071E0934A12F8231021F0E8
:1021E000020102F82310B2E1904B9B8803F07F03B9
:1021F000042B02DC8D4A52881AB10F228A4B1A70C6
:102200005CE0894A12F8231041F0020102F8231021
:102210009DE1864B5E889F88854BA3F10C02114699
:1022200033F80C0CB04209D133F80A0CB84205D18E
:10223000360A032E0CBF2F7817891AE00D690C336C
:102240000C32002DEBD10F22774B1A7036E0794B10
:102250001A68794B1A60754B9A78784B1A7076E148
:102260000F22714B1A7029E000273D4601E002273A
:102270006C4D6E4BDB889F4228BF1F46402F34BFFA
:102280003E46402628463146FFF728FD3544BF1B11
:1022900003D13F2E00F2608110E0402F34BF3E4654
:1022A000402628463146FFF719FD3544BF1B01D1B2
:1022B0003F2E03D9624B1D60624B1F8001238AF8B9
:1022C000003042E0594B198842F22103994212D161
:1022D0005D4BD81D12F8011B03F8011F8342F9D191
:1022E0005A4B1B68862B02D10F22594B1A700020C3
:1022F0000146FFF7F3FC574B45F8363025E0504BCD
:102300001E68BEB14F4FB7F80080B8F1400F34BF20
:102310004546402530462946FFF7E0FCC5EB08035B
:102320009BB23B800BB9402D01D1354400E0002524
:10233000434B1D603D4B1B88B3F5A06F05D13B4B54
:1023400000225A709B788BF8003001238AF8003005
:10235000B9E0414E9F0806EBC708D8F80420A2F167
:102360000800013DEDB213F0080F47D000F07EF9F0
:102370003A4B53F825304BB35A68384941F8252079
:1023800003F10802C8F80420354A525D032A12D826
:10239000DFE802F002060A0E0321314A51550AE035
:1023A00002212F4A515506E005212D4A515502E0E0
:1023B00004212B4A515518F0080F0CBF8822C8225F
:1023C0001B8842EA034346F837307CE0244B5B5DD0
:1023D000032B0BD8DFE803F0777702060022204BAF
:1023E0005A5570E001221E4B5A556CE018F0080F48
:1023F0000CBF022203221A4B5A5564E056F83730BC
:102400001B0C22F8083C002B55D0002322F8063C78
:1024100042F8043C134B53F825302BBB114B43F8C7
:10242000250025E00493FF1FC0200740F892FF1FFE
:1024300068400000AC91FF1F8894FF1F1C93FF1F92
:102440002C92FF1F0093FF1F7F94FF1F8094FF1F9C
:102450009592FF1FC80040000080FF1FD892FF1F09
:102460004092FF1F8492FF1F3F4B53F82530586066
:102470003D4B43F825003D4B33F8151032F8082C3E
:102480000A4423F8152000F0D1F860B100F10803E8
:10249000C8F8043018F0080F354B364A08BF134609
:1024A00046F837300FE0002346F83730324B1A78C1
:1024B00001321A7007E018F0080F2D4B2D4A08BFA3
:1024C000134646F8373008232370F4E415F0010F63
:1024D00022D02A4902230B700022294B1A70294B63
:1024E00024481860284C5C6098602848D8601A61BD
:1024F0009A610D20264B1870FF2326480370083878
:10250000037018300270244A13709F22234B1A70F4
:1025100001230B70BDE8F88F15F0800F05D00D2258
:102520001B4B1A708022403B1A7015F0020F06D028
:10253000184B1A78D2B21A700222083B1A7015F0A2
:10254000100F0ED01022164B1A70BDE8F88F002025
:102550000146FFF7C3FBB1E628460021FFF7BEFBAB
:10256000ACE6BDE8F88F00BF3092FF1F7894FF1FE4
:10257000C8004000880040000293FF1F94200740DD
:102580009492FF1F0080FF1F4492FF1F9892FF1F2D
:10259000C0200740882007408C2007408420074047
:1025A0008020074008B501F0DFFA00231B491A46D6
:1025B0005A50C81842600833882BF9D1184B1A6852
:1025C00042F480221A60154BC3F30721154A11709B
:1025D000C3F30741143211701B0E04321370FF2332
:1025E000343A137008321370783A1370012384322E
:1025F000137000216C3211707C3A137070220A4BF8
:102600001A704FF40072A3F241331A60102203F1E2
:10261000C04303F5C8231A7008BD00BF0080FF1F28
:10262000348004409C20074049E400E072B60D4B22
:102630001A68B2FA82F30B2B02D962B600207047F7
:102640004FF00041D94022EA010206490A6062B611
:10265000054903EBC303DB00C8180022CA504260DF
:10266000704700BF6887FF1F0084FF1F08B50F4B2E
:10267000C31A0F4AA2FB03131B090B2B14D80D4AD4
:1026800012783AB10C4A127812F0FF0F02D0FFF71D
:102690007DFB08BD72B6094A4FF0004121FA03F3F1
:1026A00011681943116062B608BD00BF0084FF1FA6
:1026B000398EE3380293FF1F0C93FF1F6887FF1FBB
:1026C00010B5134B1B6853B9124B1B7813F0FF0F57
:1026D00018D00320FFF726FB0D4B1860A8B10C4B58
:1026E000186843885A1C03441C7A03889A4206D30C
:1026F000FFF7BCFF0022064B1A60204610BD428047
:10270000204610BD4FF0FF3010BD4FF0FF3010BD20
:102710001893FF1F0C93FF1F08B50D4B1B6883B95F
:102720000C4B1B7813F0FF0F08D00320FFF7FAFAC9
:10273000074B186028B94FF0FF3008BD4FF0FF304D
:1027400008BD034B1B685A881344187A08BD00BFA4
:102750001893FF1F0C93FF1F044B9888044B1B68B2
:102760001BB11A885B88D31A184470477894FF1FEE
:102770001893FF1F10B50B4B1B7813F0FF0F0FD0F2
:10278000094B186820B1FFF771FF0022064B1A6051
:1027900003242046FFF7C6FA10B1FFF767FFF8E7FA
:1027A00010BD00BF0C93FF1F1893FF1F2DE9F84FBA
:1027B00004460122384B1A708B46002965D00E461C
:1027C000DFF8E080DFF8E0909A46344FD8F8003028
:1027D00083BB99F8003013F0FF0F06D100222E4B77
:1027E0001A704FF0FF30BDE8F88F4FF6D96504201E
:1027F000FFF7B6FA07280AD801238AF80030FFF756
:1028000015FFC8F80000A8B900238AF80030013D80
:1028100001D03B7833B10122204B1A704FF0FF30CA
:10282000BDE8F88F00F09CFA99F8003013F0FF0F24
:10283000DDD1D3E700233B70D8F800104A88C2F1FD
:102840004005AE4238BF354602F108030B442A4426
:102850004A80761B3DB1254414F8012B03F8012B67
:10286000AC42F9D100E025464B883F2B07D94023E5
:102870000B800420FFF7CEFA0023C8F800300522B1
:10288000074B1A700EB12C46A0E70022024B1A70BB
:102890005846BDE8F88F00BF0F93FF1F1493FF1F2A
:1028A0000E93FF1F1093FF1F0C93FF1F00B583B003
:1028B00002AB03F8010D18460121FFF777FF03B0C3
:1028C0005DF804FB10B5144B1B7813F0FF0F21D0FB
:1028D0000122124B1A70124B196851B10024114B8E
:1028E0001C704B880B800420FFF794FA0C4B1C6083
:1028F0000DE0FFF79BFE014630B10022094B1A7034
:102900000420FFF787FA02E00122064B1A7000222A
:10291000024B1A7010BD00BF0C93FF1F0F93FF1FD7
:102920001093FF1F0E93FF1F08B50E4B1B7813F07B
:10293000FF0F16D10C4B196841B14B880B80042056
:10294000FFF768FA0022084B1A6008BDFFF76EFE19
:10295000014618B10420FFF75DFA08BD0122034BC0
:102960001A7008BD0F93FF1F1093FF1F0E93FF1FD8
:1029700008B503681B68C9B2984708BD08B5036865
:102980001B68C9B2984708BD08B503681B68C9B27F
:10299000984708BD08B503681B68C9B2984708BDC9
:1029A00008B503681B68C9B2984708BD08B5036835
:1029B0001B68C9B2984708BD08B503681B68C9B24F
:1029C000984708BD08B503681B68C9B2984708BD99
:1029D00008B5044800EB5100B0FBF1F000F08EFAAE
:1029E00008BD00BF00882A1110B51446054800EB49
:1029F0005100B0FBF1F000F081FA204600F0E6FA59
:102A000010BD00BF00882A1108B500F00FFB08BDFB
:102A100008B5084600F044FB08BD00BF08B50846ED
:102A200000F098FB08BD00BF08B50846114600F04D
:102A300053FB08BD08B5084600F0B8FB003018BFCE
:102A4000012008BD08B5084600F0D2FB003018BFD1
:102A5000012008BD08B500F0CBFC08BD08B500F0AA
:102A600011FD08BD08B500F0D3FC08BD08B500F0A5
:102A70009DFC08BD08B500F01FFD08BD08B500F0BD
:102A8000A5FC08BD08B5084600F0DEFB012008BD26
:102A900008B5084600F0D8FB012008BD10B5144663
:102AA0000846114600F020FC204610BD38B50D4602
:102AB000084601F077F904462846214600F014FC48
:102AC000204638BD08B5044800EB5100B0FBF1F0DA
:102AD000FEF752FD08BD00BF00882A1110B514464C
:102AE000054800EB5100B0FBF1F0FEF745FD204634
:102AF000FEF7AAFD10BD00BF00882A1108B5FEF739
:102B0000D3FD08BD08B50846FEF72EFE08BD00BF80
:102B100008B50846FEF782FE08BD00BF08B50846A6
:102B20001146FEF73DFE08BD08B50846FEF7A4FEB7
:102B3000003018BF012008BD08B50846FEF7BEFEEC
:102B4000003018BF012008BD08B5FEF7ADFF08BD75
:102B500008B5FEF7F3FF08BD08B5FEF7B5FF08BDE1
:102B600008B5FEF77FFF08BD08B5FFF701F808BDFF
:102B700008B5FEF787FF08BD08B50846FEF7C0FE9A
:102B8000012008BD08B50846FEF7BAFE012008BDC1
:102B900010B5144608461146FEF702FF204610BD48
:102BA00038B50D46084601F0FDF804462846214692
:102BB000FEF7F6FE204638BD704700BF044B0022EA
:102BC0001A714FF47A7199601A73024A1A60704749
:102BD0002093FF1FD03F000008B5FEF76DF8FEF709
:102BE00041F900F0BDF8FAE700B583B0054B1B884A
:102BF000ADF8043003685B6801A90222984703B06E
:102C00005DF804FB28400000F0B58BB0164622B9F1
:102C100003681B68C9B298472FE0012A08BF0A263B
:102C200021B930228DF82520212417E021243746B0
:102C3000B1FBF6F506FB1515EDB22246092D94BF42
:102C400030353735EDB20DF1280E724402F8245CB0
:102C5000B1FBF7F111B1013CE4B2E9E733B1013C5A
:102C6000E4B20AAB23442D2203F8242C03685B68EA
:102C700001A92144C4F1220298470BB0F0BD00BF66
:102C800008B50029BABF49422D2300230A22FFF7C5
:102C9000BBFF08BD70B582B004460C4B1B680093A7
:102CA000009E0A4D2368DB682046984700280ADA10
:102CB00000F056F82B680193019A921BA3689A4280
:102CC000F0D34FF0FF3002B070BD00BFAC91FF1FDA
:102CD00081607047F8B505460E4617466AB1002474
:102CE0002846FFF7D7FF002802DA01232B7305E0FF
:102CF00030550134BC42F3D100E000242046F8BD39
:102D000008B5FFF729FD08BD08B5FFF7D9FC08BDD8
:102D100008B5FFF701FD08BD08B5FFF7D3FD08BDF5
:102D200008B5FFF727FD08BD08B50846FFF7BEFD4B
:102D300008BD00BF08B508461146FFF737FD08BDBE
:102D4000704700BF044B00221A714FF47A719960EA
:102D50001A73024A1A6070473093FF1F3840000010
:102D600008B50F4B1B78CBB901220D4B1A70FFF73A
:102D7000F3FC08B1FFF7E4FF00F03AFB08B100F004
:102D800037FFFEF791FE08B1FFF716FF00F002FED5
:102D900008B100F0CFFF0022014B1A7008BD00BF40
:102DA0004093FF1F60223A4B1A70E12201331A70E0
:102DB000384B1B78082B10D1012203F1804303F517
:102DC0006C331A60132334490B6001F5FF2101F2C3
:102DD000FC710A60314A13601FE00A2B0DD13922C1
:102DE0002F4B1A6013232C490B6001F5FF2101F2D0
:102DF000FC710A60294A13600FE00C2B0CBF3522CE
:102E00003D22274B1A60122323490B6001F5FF2155
:102E100001F2FC710A60214A1360224B1B7833B126
:102E20000123214A136002F50022136005E000230C
:102E30001D4A136002F5002213601C4B1B78012B06
:102E400006D880231A4A136002F5002213601AE0A4
:102E5000042B06D88423164A136002F5002213605F
:102E600011E0082B06D88523114A136002F50022D1
:102E7000136008E0102B94BF862387230C4A13604D
:102E800002F50022136001220A4B1A70704700BF3E
:102E9000004007406C87FF1F0CB003400CB00B4094
:102EA00008B003404293FF1F20B003406D87FF1F0F
:102EB00024B003404193FF1F30B40023B0FBF2F471
:102EC00002FB14041D46092C94BF30343734E4B29D
:102ED000CC54B0FBF2F008B10133EFE70D4400220F
:102EE0006A70934207DD885CCC5C8C54C854013214
:102EF000013B9A42F7DB084630BC7047254B1A6805
:102F000042F480621A600023234A1370234A13702C
:102F1000234A1370234A1370234A1370234B1B78E0
:102F200013B1152B05D008E040F21332204B1A6084
:102F300003E040F213321F4B1A601F4B1B78012B2A
:102F400002D0052B05D008E04FF451721B4B1A60DC
:102F500003E04FF451721A4B1A60C0F34432194B1C
:102F60001A70C0F347125A7000F01F0098720422C2
:102F70009A700221D9745A7588221A743C22DA7028
:102F80004022114B1A704FF40052A3F229331A60F9
:102F9000704700BF34800440D093FF1F4993FF1F48
:102FA000D893FF1FD193FF1F4893FF1F8C93FF1FE0
:102FB00040A0044018C004406E87FF1F44A0044096
:102FC0001CC0044000A006402DE400E0164B9B7896
:102FD00003F0EC0300F00302134310F0040F18BFDA
:102FE00043F01003104A937000F00F03042B04D138
:102FF0001346927942F040029A710B4B5A7902F0D3
:10300000EF0210F0100F18BF42F01002064B5A7179
:103010009B7903F0EF0310F0200F18BF43F010036B
:10302000014A9371704700BF00A0064010B5144BD1
:103030001B6813F4806F21D0124B1B7813F0FF0F25
:1030400006D0104CFFF78CFE237813F0FF0FF9D158
:103050004FF400520C4B1A6000230C4AD37040F21C
:1030600003120B490A6004310A600A4A13700A4AC3
:1030700013700A4B1B680BB101221A7010BD00BF00
:10308000348004404893FF1F84E100E000A0064024
:1030900040A00440D093FF1F4993FF1F4493FF1F9C
:1030A00010B50446094A137813F0FF0FFBD12046F0
:1030B0000121FEF78BF920460021FEF763F9044B4E
:1030C00053F83420034B1A6010BD00BF4893FF1F14
:1030D000B43E0000D493FF1F10B40C4609B140F079
:1030E0008000184B1B78984228D0174A126812F4B7
:1030F000806F21D003F07F03012B02D0052B04D079
:1031000006E00022114B1A6002E00022104B1A6008
:10311000002C0CBF4422602200F07F03012B02D060
:10312000052B05D008E042F44072084B1A6003E01A
:1031300042F44072064B1A60024B18705DF8044B63
:10314000704700BF6E87FF1F3480044044A00440D6
:103150001CC00440114B1B7898421ED0104A1268C4
:1031600012F4806F17D013B1152B04D006E00022A3
:103170000C4B1A6002E000220B4B1A6010B11528AC
:1031800005D008E040F21332064B1A6003E040F22B
:103190001332054B1A60014B187070478C93FF1F58
:1031A0003480044040A0044018C0044010B50D4BCA
:1031B0001B6813F4806F12D021280CD80A4C0B4BDB
:1031C00053F8303023600121FEF700F92368002214
:1031D0001A70012010BD0020034B186010BD0020A4
:1031E00010BD00BF348004404493FF1FB43E000074
:1031F000114B1B6813F4806F1BD0122804D140F2CE
:1032000002320E4B1A600DE0142804D140F2023253
:103210000B4B1A6006E00B4B5A7B02F0FE025A730E
:1032200000207047074B5A7B42F001025A7301207D
:1032300070470020704700BF348004400CA0044059
:1032400014C0044000A006402DE9F04107461F4B82
:103250001B6813F4806F37D01D4B1B680BB1012224
:103260001A701C4B1C780134402C28BF00241A4DC6
:103270001A4EDFF86C8017E0FEF754F840280FDC98
:10328000337913F0800F0FD02B780133402B28BFF8
:10329000002318F80320D2B2F271DBB22B7003E0E6
:1032A000FF2801DDFFF75CFD2B78DBB29C42E3D009
:1032B000FFB20B4B1F5501220A4B1A70E4B2054BAB
:1032C0001C70BC22054BDA70BDE8F08134800440EC
:1032D000D493FF1FD893FF1FD193FF1F00A0064078
:1032E0004C93FF1F4893FF1F2DE9F84F0746284BCB
:1032F0001B6813F4806F49D0264B1B680BB1012269
:103300001A7007EB010B5F453DD2DFF89890224E13
:10331000DFF88C80DFF890A099F800400134402C51
:1033200028BF00243578EDB2A54220D1BC2388F80F
:103330000330FDF7F7FF402811DC98F8043013F054
:10334000800F10D033780133402B28BF00231AF8A8
:103350000320D2B288F80720DBB2337003E0FF28E5
:1033600001DDFFF7FDFC3378DBB29D42E1D017F8B9
:10337000013B0AF804300122084B1A70E4B289F8C4
:1033800000405F45C8D1BC22054BDA70BDE8F88F1C
:1033900034800440D493FF1FD193FF1F4893FF1F35
:1033A00000A00640D893FF1F4C93FF1F10B5064B9B
:1033B0001B7813F0FF0F06D0034CFFF7D1FC2378E6
:1033C00013F0FF0FF9D110BD4893FF1F064B1B7878
:1033D000DBB2064A1278D2B293422CBF3F3202F1DE
:1033E000FF32D01A704700BFD893FF1FD193FF1F41
:1033F000054B1878C0B2054B1B78DBB2984238BF3A
:103400004030C01A704700BFD093FF1F4993FF1F81
:1034100010B4184B1A78D2B2174B1B78DBB29A4211
:1034200018D001333F2B18D81449C85CC0B2DCB2A5
:1034300011490C7012490968C9B19A4203D300E0DE
:103440000023D31A01E04032D31A1A2B0FDC0023D9
:103450000B700CE04FF0FF3009E0084B1878C0B259
:103460000021054B1970064B19680029E8D15DF859
:10347000044B7047D093FF1F4993FF1F9093FF1F8A
:103480004493FF1F094B1A78D2B2094B1B78DBB269
:103490009A4207D00133402B28BF0023054AD05C55
:1034A000C0B270474FF0FF30704700BFD093FF1F8E
:1034B0004993FF1F9093FF1F0D4B1B6813F4806F00
:1034C00014D00C4BDA7802F0CB02DA7040225A7436
:1034D000DA7842F03402DA70074B1A78D2B2074B2E
:1034E0001A70074B1B680BB100221A70704700BF9F
:1034F0003480044000A006404993FF1FD093FF1F73
:103500004493FF1F70B43D4B1B7913F0300F33D041
:1035100072B63A4B9B7D03F0FF022BB9374BDA7939
:1035200040225A7462B627E062B6354B1978C9B2A8
:10353000344B1C78E4B2314D334EEB79D8B24B1C8E
:10354000402B28BF0023A3421CBFF0541946531E32
:1035500013F0FF02F1D1CAB2294B1A702B4B1B6832
:1035600053B1A1422EBFC4EB0101C4F140040919BB
:103570002729C4BF01221A70204BDA78D2B212F088
:10358000800F27D01B7913F0800F23D0204B1C789D
:10359000E4B2204B1B78DBB29C4210D017491E4D81
:1035A00001E0A3420BD00133402B28BF0023087950
:1035B000E85CC0B2C871087DC0B20728F1D9DBB29F
:1035C00014490B700D4B1B7913F0800F02D07C2136
:1035D0000A4BD97012F0400F0ED0084B1B7913F034
:1035E000400F09D000220D4B1A700D4B1B6803B120
:1035F0001A703C22014BDA7070BC704700A0064084
:10360000D093FF1F4993FF1F9093FF1F4493FF1F09
:10361000D893FF1FD193FF1F4C93FF1F4893FF1FA9
:10362000D493FF1F174B1A6842F480521A6000238C
:10363000154A1370154A1370154A1370154A137002
:10364000154A137040F21331144A11604FF451714E
:1036500004321160C0F34431114A1170C0F34711B4
:10366000517000F01F009072937013742C23D3706C
:1036700040220C4B1A704FF40032A3F22D331A6023
:10368000704700BF348004404C94FF1FE193FF1F3C
:103690005494FF1F4D94FF1FE093FF1F08C0044088
:1036A00000C0064031E400E0164B9B7803F0EC03C9
:1036B00000F00302134310F0040F18BF43F010038F
:1036C000104A937000F00F03042B04D11346927933
:1036D00042F040029A710B4B5A7902F0EF0210F05F
:1036E000100F18BF42F01002064B5A719B7903F07D
:1036F000EF0310F0200F18BF43F01003014A93713D
:10370000704700BF00C0064010B5144B1B6813F48F
:10371000805F21D0124B1B7813F0FF0F06D0104CA6
:10372000FFF71EFB237813F0FF0FF9D14FF400329F
:103730000C4B1A6000230C4AD37040F203120B4961
:103740000A6004310A600A4A13700A4A13700A4B6D
:103750001B680BB101221A7010BD00BF34800440F9
:10376000E093FF1F84E100E000C0064008C0044071
:103770004C94FF1FE193FF1FDC93FF1F10B504461D
:10378000094A137813F0FF0FFBD120460121FDF702
:103790001DFE20460021FDF7F5FD044B53F83420B3
:1037A000034B1A6010BD00BFE093FF1FB43E000042
:1037B0005094FF1F10B40C4609B140F08000104B2C
:1037C0001B78984219D00F4A126812F4805F12D009
:1037D00003F07F03082B02D100220B4B1A60002C50
:1037E0000CBF4422602200F07F03082B03D142F477
:1037F0004072054B1A60024B18705DF8044B70471D
:103800006F87FF1F348004400CC00440704700BF26
:1038100010B50D4B1B6813F4805F12D021280CD813
:103820000A4C0B4B53F8303023600121FDF7CEFDDD
:10383000236800221A70012010BD0020034B18607D
:1038400010BD002010BD00BF34800440DC93FF1F7A
:10385000B43E00000D4B1B6813F4805F13D00E289C
:103860000AD140F202320A4B1A600A4B5A7B42F0EC
:1038700001025A7301207047064B5A7B02F0FE0288
:103880005A73002070470020704700BF3480044006
:1038900004C0044000C006402DE9F04107461F4B1C
:1038A0001B6813F4805F37D01D4B1B680BB10122DE
:1038B0001A701C4B1C780134282C28BF00241A4D88
:1038C0001A4EDFF86C8017E0FDF72CFD40280FDC66
:1038D000337913F0800F0FD02B780133282B28BFBA
:1038E000002318F80320D2B2F271DBB22B7003E090
:1038F000FF2801DDFFF734FA2B78DBB29C42E3D0DE
:10390000FFB20B4B1F5501220A4B1A70E4B2054B54
:103910001C70AC22054BDA70BDE8F08134800440A5
:103920005094FF1F5494FF1F4D94FF1F00C006408A
:10393000E493FF1FE093FF1F38B505460C4629B1FD
:1039400015F8010BFFF7A8FF013CF9D138BD00BF06
:1039500010B5064B1B7813F0FF0F06D0034CFFF792
:10396000FFF9237813F0FF0FF9D110BDE093FF1F8B
:10397000064B1B78DBB2064A1278D2B293422CBFB8
:10398000273202F1FF32D01A704700BF5494FF1F54
:103990004D94FF1F054B1878C0B2054B1B78DBB266
:1039A000984238BF4030C01A704700BF4C94FF1F88
:1039B000E193FF1F10B4184B1A78D2B2174B1B7843
:1039C000DBB29A4218D001333F2B18D81449C85C97
:1039D000C0B2DCB211490C7012490968C9B19A42EF
:1039E00003D300E00023D31A01E04032D31A1A2B8C
:1039F0000FDC00230B700CE04FF0FF3009E0084BA8
:103A00001878C0B20021054B1970064B19680029BF
:103A1000E8D15DF8044B70474C94FF1FE193FF1F02
:103A20000C94FF1FDC93FF1F094B1A78D2B2094B8D
:103A30001B78DBB29A4207D00133402B28BF00230A
:103A4000054AD05CC0B270474FF0FF30704700BFEE
:103A50004C94FF1FE193FF1F0C94FF1F054B1A7836
:103A6000D2B2054B1A70054B1B680BB100221A70BD
:103A7000704700BFE193FF1F4C94FF1FDC93FF1FB3
:103A80002F4B1B7913F0200F23D02D4BDB79D9B2AC
:103A90002C4B1B780133402B28BF00232A4A127875
:103AA000D2B29A4204D0294AD154D9B2254A1170CF
:103AB000274A116869B1274A1278D2B293422EBFC1
:103AC000C2EB0303C2F140029B18272BC4BF0123A2
:103AD0000B701B4BDB78DBB213F0800F1CD0184A45
:103AE000127912F0800F17D01B4A1178C9B2194A07
:103AF0001278D2B2914203D16C21114AD1700BE0FD
:103B00000132282A28BF00221449885CC0B20C491F
:103B1000C871D2B20F490A7013F0400F0ED0084B93
:103B20001B7913F0400F09D000220D4B1A700D4B7A
:103B30001B6803B11A702C22014BDA70704700BF6A
:103B400000C006404C94FF1FE193FF1F0C94FF1F21
:103B5000DC93FF1F4D94FF1F5494FF1FE493FF1F3E
:103B6000E093FF1F5094FF1F00B585B072B61B4B4A
:103B700070221A7041211A4A11700F21013A1170F6
:103B800080221A701A46137813F0800FFBD0154B61
:103B9000186862B6144B98429CBF00EB800040004E
:103BA00001A90A22FFF788F99DF804307BB908E0E3
:103BB00001A9595C31B19180023201330A2BF7D14E
:103BC00000E0002301335B00084A137003E0074A5A
:103BD00053800123ECE705B05DF804FB00000240D0
:103BE00007000240080002407F969800FC87FF1FF4
:103BF000704700BF044B00221A714FF47A7199602C
:103C00001A73024A1A6070475894FF1FB8400000A8
:103C100008B503681B68C9B2984708BD08B50368B2
:103C20001B68C9B2984708BD08B503681B68C9B2CC
:103C3000984708BD08B503681B68C9B2984708BD16
:103C400008B54B0803F1B76000F55840B0FBF1F040
:103C5000FFF7E8FC08BD00BF10B514464B0803F1A0
:103C6000B76000F55840B0FBF1F0FFF7DBFC2046F1
:103C7000FFF71AFD10BD00BF08B5FFF745FD08BDF1
:103C800008B50846FFF77AFD08BD00BF08B508462D
:103C9000FFF7BCFD08BD00BF08B508461146FFF799
:103CA00089FD08BD08B50846FFF7B2FD003018BF12
:103CB000012008BD08B50846FFF7CCFD003018BF4D
:103CC000012008BD08B5FFF765FE08BD08B5FFF780
:103CD000ABFE08BD08B5FFF76DFE08BD08B5FFF7E0
:103CE00037FE08BD08B5FFF7B9FE08BD08B5FFF7F8
:103CF0003FFE08BD08B50846FFF7CEFD012008BD10
:103D000008B50846FFF7C8FD012008BD10B51446E8
:103D100008461146FFF710FE204610BD38B50D4687
:103D2000084600F03FF8044628462146FFF704FE07
:103D3000204638BD704700BF044B00221A714FF473
:103D40007A7199601A73024A1A6070476894FF1F6B
:103D50001841000070B50F4E0F4D761BB61007D0FE
:103D6000043D0024013455F8043F9847A642F9D198
:103D70000A4E0B4D761B00F0FBF9B61008D0043D3F
:103D80000024013455F8043F9847A642F9D170BD8C
:103D900070BD00BF7C4100007C41000098410000E4
:103DA0007C41000020F0030110F00300C0F100008E
:103DB00051F8043B00F1040C4FEACC0C6FF0000208
:103DC0001CBF22FA0CF213434FF0010C4CEA0C2CEE
:103DD0004CEA0C4CA3EB0C0222EA030212EACC12CE
:103DE00004BF51F8043B0430F4D013F0FF0F1FBFA1
:103DF000013013F47F4F013013F47F0F18BF0130EF
:103E0000704700BF024B13B10248FDF745BA704737
:103E100000000000193E000038B5094D094C641B34
:103E2000A41018BF05EB840505D0013C55F8043DEE
:103E30009847002CF9D1BDE8384000F0ADB900BF7B
:103E40000000000000000000000000000000000072
:103E5000890500009D040000690500006904000058
:103E600065040000990400005106000000000000F5
:103E70005374617274696E672E2E2E005468726FCF
:103E80007567687075743A20000000002050616307
:103E90006B65747320280000206B622F73292C201F
:103EA00064726F707065643A200000002E204650E6
:103EB000533A20004008FE4340A004404408FE431B
:103EC00044A004400018FE4300C004403000FE43FC
:103ED000309004403400FE43349004401C18FE43EC
:103EE0001CC004401018FE4310C004400818FE43D4
:103EF00008C004400C18FE430CC004400C10FE43E4
:103F00000CB004401010FE4310B004401810FE43E3
:103F100018B004401C10FE431CB004401410FE43B3
:103F200014B004400418FE4304C004400010FE43D3
:103F300000B004400008FE4300A004400408FE4313
:103F400004A004400C08FE430CA004400808FE43F3
:103F500008A004401418FE4314C004401818FE437F
:103F600018C004400410FE4304B004400810FE438F
:103F700008B004401400FE43149004404C08FE4373
:103F80004CA004400420FE4304D004402410FE430F
:103F900024B004402010FE4320B004402810FE430B
:103FA00028B004402C10FE432CB004400020FE43F7
:103FB00000D004404808FE4348A004401000FE43DF
:103FC00010900440FFFFFFFF000000000000000011
:103FD000792B0000912B0000492B0000592B000089
:103FE000512B0000612B0000C52A0000DD2A0000D3
:103FF000FD2A0000052B0000112B00001D2B0000E6
:10400000292B0000392B0000692B0000712B0000C8
:10401000A1290000AD290000B9290000C529000030
:10402000A12B0000852B00000D0A0000FFFFFFFF01
:104030000000000000000000292D0000352D0000C8
:10404000012D0000092D0000112D0000192D000088
:10405000212D0000000000000015191500010000CE
:104060007087FF1F12000000000200009C87FF1FE6
:104070004300000000030000F887FF1F000000005D
:10408000010309048487FF1F0000000002030904E4
:10409000E087FF1F0000000003030904FC87FF1FE7
:1040A0000000000000000000000000000000000010
:1040B0000000000000000000852A00009D2A00008A
:1040C000552A0000652A00005D2A00006D2A0000C4
:1040D000D1290000E9290000092A0000112A000066
:1040E0001D2A0000292A0000352A0000452A000068
:1040F000752A00007D2A0000712900007D2900003A
:104100008929000095290000AD2A0000912A0000AD
:104110000000000000000000F53C00000D3D000024
:10412000C53C0000D53C0000CD3C0000DD3C00005B
:10413000413C0000593C0000793C0000813C0000FB
:104140008D3C0000993C0000A53C0000B53C0000FF
:10415000E53C0000ED3C0000113C00001D3C00006F
:10416000293C0000353C00001D3D0000013D0000E1
:10417000F8B500BFF8BC08BC9E467047053E00007D
:10418000350400009D120000BD2B0000452D0000ED
:08419000F53B0000393D000081
:04419800F8B500BFB7
:10419C0001000000090A0000FFFFFFFF0A040108EC
:1041AC001201010102000040C0168304000201024A
:1041BC000301000018035400650065006E007300D5
:1041CC0079006400750069006E006F0009024300FD
:1041DC00020100C0320904000001020201000524A2
:1041EC000010010524010101042402060524060027
:1041FC00010705820310004009040100020A0000B7
:10420C00000705030240000007058402400000007F
:10421C001603550053004200200053006500720045
:10422C00690061006C000000040309040C03000029
:10423C000000000000000000000000000000000072
:04424C00000000006E
:00000001FF
