:1000000000800020BD01000025090100E908010071
:10001000E9080100E9080100E9080100E908010018
:10002000E9080100E9080100E908010025090100CB
:1000300025090100E908010025090100D90801008E
:1000400025090100250901002509010025090100F4
:1000500025090100250901002509010025090100E4
:1000600025090100250901002509010025090100D4
:1000700025090100250901002509010025090100C4
:1000800025090100250901002509010025090100B4
:1000900025090100250901002509010025090100A4
:1000A000E9010100250901002509010025090100D8
:1000B0002509010025090100250901002509010084
:1000C0002509010025090100250901002509010074
:1000D0002509010025090100250901002509010064
:1000E0002509010025090100250901002509010054
:1000F000250901004D32010025090100A513010069
:1001000025090100C9370100250901002509010061
:100110002509010025090100250901002509010023
:100120002509010025090100250901002509010013
:100130002509010025090100250901002509010003
:1001400025090100250901002509010025090100F3
:1001500025090100250901002509010025090100E3
:10016000250901008D16010025090100250901005E
:1001700025090100250901002509010025090100C3
:1001800025090100250901002509010025090100B3
:1001900025090100250901002509010025090100A3
:1001A0002509010025090100250901002509010093
:1001B000250901002509010051230100574B4CF28C
:1001C000205210B51A804DF628121A8000BF00BFC9
:1001D00000F0FEFC524B4FF010621A60514A9A60D8
:1001E000514ADA60A3F53043203B1A6812F480725A
:1001F00004D14E490A604FF4A8521A604C4B1A7849
:10020000110703D51A7842F008021A70494B4A4C7C
:100210004A482A221A704A4A00239918A14203D256
:10022000195899500433F8E7464B474900228B424E
:1002300002D243F8042BFAE74448454900235A58B0
:100240001A500433B3F5DE7FF9D1424B424A802184
:1002500003F8011B9342FBD1404B3C4A1A60404BD0
:100260008A221A70A3F5805324225A70A0221A7091
:100270009A799207FCD59A79D406FCD4394A9379B5
:1002800003F00C03082B374BF9D103221A714C22CF
:100290005A719A799006FCD5324A9179314B4906C8
:1002A000FBD5314A4FF001711160042151602022C9
:1002B0001A709A7902F00C020C2AFAD12B4B2C4AB4
:1002C0001A602C4B2C4A1A6000225A60072243F80D
:1002D000042C2A4AC3F80C2D62B610F0E5FC134B2F
:1002E0001B68DA0705D5264810F0A2FB254B264AE5
:1002F0001A60264B1B785B0609D5224C224A2368DC
:10030000934204D11E4810F093FB0023236016F0A3
:10031000E3FA10F00BFB12F005FAFEE70E200540A1
:1003200030800440823F04000100002B14D00340C1
:1003300002D0074000E00740DC9CFF1FD086010090
:100340006091FF1FDC9CFF1F58030020008CFF1FE3
:100350000000000000E400E05FE400E008ED00E0E1
:1003600000500640004006404480044004800440A1
:10037000C010050014E000E07F32020000002020E1
:10038000072451041CE00340A5C3945A00F0074021
:10039000FFFFFFFFFFFFFFFFFFFFFFFFFFFFFFFF6D
:1003A000FFFFFFFFFFFFFFFFFFFFFFFFFFFFFFFF5D
:1003B000FFFFFFFFFFFFFFFFFFFFFFFFFFFFFFFF4D
:1003C000FFFFFFFFFFFFFFFFFFFFFFFFFFFFFFFF3D
:1003D000FFFFFFFFFFFFFFFFFFFFFFFFFFFFFFFF2D
:1003E000FFFFFFFFFFFFFFFFFFFFFFFFFFFFFFFF1D
:1003F000FFFFFFFFFFFFFFFFFFFFFFFFFFFFFFFF0D
:10040000FFFFFFFFFFFFFFFFFFFFFFFFDEF9FFFF23
:1004100010B5054C237833B9044B13B10448AFF33E
:1004200000800123237010BDDC9CFF1F0000000032
:10043000D086010008B5064B1BB106480649AFF34C
:1004400000800648036813B1054B03B1984708BD07
:1004500000000000D0860100E09CFF1FDC9CFF1F15
:10046000000000004069704710B582B00A460023C2
:100470008DF800308DF801308DF802300468246862
:100480008DF804308DF805308DF80630694601ABE3
:10049000A04702B010BD00BF0020704770B50446F1
:1004A0000D46994BDA68C2611B690362974B1B6862
:1004B0004362974B1B688362964B1B68C362964BE3
:1004C0001B680363806910B103681B6898478E4BF3
:1004D000DA68924B9A4240F033818B4B1A69904B09
:1004E0009A4240F02D8112E0874B8C4ADA6002F18B
:1004F00080421A610BE043F4804141F00101824ADD
:1005000011608649D16001F18041116113604FF49F
:1005100010727F4B1A604FF4A2737C490B60A1F6F6
:10052000F4710A607C4A1360774AD36A13F4804FEF
:10053000FBD172B6744B4FF080525A63DA6A42F0C4
:100540000042DA6262B61A46D36A13F4804FFBD1D6
:1005500072B66D4B4FF080525A63DA6A42F0004235
:10056000DA6262B6AB68002B5DDD0020664B2A685C
:10057000927822B1A97B82FA51F2D2B200E002460F
:10058000297D01FB0222C2F3072141F47F41DA6A8F
:1005900012F4804FFBD172B641F080525A63DA6A8E
:1005A00042F00042DA6262B629684A7822B16E7B74
:1005B00082FA56F2D2B200E00246EE7C06FB02223C
:1005C00002F47F460A7822B1297B82FA51F2D2B234
:1005D00000E00246A97C01FB0222C2F3072131435D
:1005E000DA6A12F4804FFBD172B641F080525A633E
:1005F000DA6A42F00042DA6262B6E97B2A7B8A1A42
:100600002A73297C6A7B8A1A6A73697CAA7B8A1A94
:10061000AA7395F915102A680A442A60AA68013A53
:10062000AA60002AA3DC68680028B8BF1F30401108
:10063000354BFF250021DA6A12F4804FFBD172B6E8
:100640005D63DA6A42F00042DA6262B6DA6A12F494
:10065000804FFBD172B65963DA6A42F00042DA6227
:1006600062B6DA6A12F4804FFBD172B65963DA6A65
:1006700042F00042DA6262B6DA6A12F4804FFBD1CD
:1006800072B65963DA6A42F00042DA6262B6013841
:10069000B0F1FF3FCFD11C4B0120002172B6DA6AC6
:1006A00012F4704F05D0DA6A42F00042DA620A466C
:1006B00000E0024662B6002AF0D0134AD36A002B4B
:1006C000FCDA114BDA6A42F01042DA624FF4A2739C
:1006D0000F4A1360626A0D490A600E4A1360236B69
:1006E00002F57F621360A06910B103685B689847E8
:1006F000E369206A044AD268934228D1024A126907
:10070000904224D170BD00BF00C0024008C0044028
:1007100018B0044014B0044004C004400110003874
:10072000011000780D4AD360106170BD42F480441E
:1007300044F0010409490C60CB6008610A6070BD97
:10074000064B1B6813F4804F3FF4D5AECCE6034A4A
:10075000126812F4804FE9D0E4E700BF00C0024005
:10076000F0B589B0847C0191029203921A788DF8D9
:1007700016205A788DF817209B788DF81830012CA8
:1007800039D1294A1378013303F00703137003F0BA
:100790000105ED0113F0020F1CBF45F04005EDB25D
:1007A00013F0040F18BF45F020051035EDB20DF120
:1007B000150306AF00264FF4807E013319461A78E0
:1007C00022B19EFBF2F20132D2B200E0324601F8D1
:1007D000032C02FB0554C4F3072414B901F8066C7A
:1007E00002E0013C01F8064C12B1013A01F8032C79
:1007F000BB42E2D10CE000238DF815308DF81430A7
:100800008DF813308DF812308DF811308DF81030CE
:1008100003238DF819300023079303689B6901A90E
:10082000984709B0F0BD00BFF89CFF1FF0B589B034
:10083000847C0191029203921A788DF816205A78DE
:100840008DF817209B788DF81830012C39D1284A63
:100850001378013303F00703137003F00105ED0172
:1008600013F0020F1CBF45F04005EDB213F0040F6A
:1008700018BF45F020051035EDB20DF1150306AF98
:1008800000264FF4807E013319461A7822B19EFB70
:10089000F2F20132D2B200E0324601F8032C02FB40
:1008A0000554C4F3072414B901F8066C02E0013CB6
:1008B00001F8064C12B1013A01F8032CBB42E2D117
:1008C0000CE000238DF815308DF814308DF81330BE
:1008D0008DF812308DF811308DF8103000238DF81E
:1008E0001930079303689B6901A9984709B0F0BDC7
:1008F000F89CFF1F08B50B20012110F0DBF80D203C
:10090000012110F0D7F80C4B1B6813F4805F06D15F
:1009100043F48053084A1360084A094BDA60084BD5
:100920001A6842F000421A601A6822F4804222F0EB
:1009300001021A6008BD00BF3C800440010001387C
:1009400000C0024038B505460C46084616F05AFD70
:1009500002462B685B6828462146984738BD00BF91
:1009600038B504460D46084616F04CFD024623688D
:100970005B682046294698470546204611F0EEFE62
:10098000284438BD38B5054611F034FF04462846E2
:1009900011F0E4FE204438BD0F4B03604172026148
:1009A00000230372C36039B11946026942F823106B
:1009B0000133427A9A42F8DC084B1A680AB9186087
:1009C00004E053690BB11A46FBE750610023436111
:1009D0008380C380704700BF9077010080010020B2
:1009E0000B46003118BF012102782AB103FB02F245
:1009F00001EB2222D2B200E00022027042782AB13A
:100A000003FB02F201EB2222D2B200E0002242708C
:100A100082782AB103FB02F301EB2321C9B200E083
:100A200000218170704700BF82B00D4B1B6800939E
:100A3000009B0C4A126832329A420ED8084B1B684F
:100A40000193019A074B1A6072B6074B4AF2026291
:100A50001A804BF280421A8062B602B0704700BF23
:100A60000C00002030F9FF1F0C20054010B54B4B47
:100A70001B7813F0200F09D0494C23685B6820468F
:100A800048492E229847204611F068FE434B1B78B8
:100A900013F0080F09D0424C23685B682046424996
:100AA00019229847204611F059FE3C4B1B7813F051
:100AB000040F09D03A4C23685B6820463B491B224F
:100AC0009847204611F04AFE344B1B7813F0020F72
:100AD00009D0334C23685B68204635492422984767
:100AE000204611F03BFE334B1B7813F0800F09D0EA
:100AF0002B4C23685B6820462F491B2298472046D1
:100B000011F02CFE2B4B1B7813F0400F09D0244C16
:100B100023685B68204629491F229847204611F028
:100B20001DFE244B1B7813F0200F09D01C4C2368AA
:100B30005B682046224920229847204611F00EFE8D
:100B40001C4B1B7813F0040F09D0154C23685B680D
:100B500020461C4929229847204611F0FFFD154BDD
:100B60001B7813F0080F09D00D4C23685B682046F2
:100B7000154926229847204611F0F0FD0D4B1B78B1
:100B800013F0020F09D0064C23685B6820460F491A
:100B900025229847204611F0E1FD10BD01F00740E5
:100BA000C0010020C0770100F07701000C7801003F
:100BB0002878010000F00740507801006C780100AF
:100BC0008C780100B0780100DC7801000479010024
:100BD0004FF47A72044B1A800022023B1A80D12211
:100BE000043B1A80704700BF06200540F8B5064652
:100BF0000F46204C20460EF009FA1F4A2C2303FB17
:100C000006F3D518B4F900100911D152B4F9023025
:100C10001B116B80B4F904301B11AB800123EB80F6
:100C200020460EF053FAE2882A8122896A8162897D
:100C3000AA81EFB9104A2C2303FB06F62969905BC1
:100C4000411A91536A6969888A1A6A80AA69A988CF
:100C50008A1AAA8005F10802296A2889411A29817D
:100C6000696A6889411A6981AB6A9188CB1A938055
:100C7000F8BD00BF64F9FF1F80F7FF1F2DE9F047A3
:100C800081468A46DFF8BC80274F284E284D4046D3
:100C9000394632462B460DF00FFD264A2C2303FB26
:100CA00009F3D418B7F900100911D152B6F9003080
:100CB0001B116380B5F900301B11A3800123E38071
:100CC0001D4F1E4E1E4D4046394632462B460DF0F6
:100CD00019FD3A882281328862812A88A281BAF17C
:100CE000000F1FD1134A2C2303FB09F9216932F8A5
:100CF0000900411A22F80910626961888A1A628023
:100D0000A269A1888A1AA28004F10802216A2089B6
:100D1000411A2181616A6089411A6181A36A9188BF
:100D2000CB1A9380BDE8F087D0FBFF1F3A9DFF1FD1
:100D30003C9DFF1F80F7FF1FB4FBFF1FB6FBFF1F8B
:100D4000B8FBFF1FB0FCFF1F2DE9F04F87B0054631
:100D50000591DFF80CB1DFF80CA1DFF80C91DFF89A
:100D60000C81CDF800803A4F01973A4E02963A48EE
:100D7000594652464B460EF0A5FA384A2C2303FB3F
:100D800005F3D418BBF80010D152BAF800306380D4
:100D9000B9F80030A38030480EF0CAFAE080B8F805
:100DA000002022813A8862813288A281059B002B33
:100DB0004AD12A4A2C2303FB05F3D05E2169411A4C
:100DC00048BF1F314911D1522C22244B02FB05335D
:100DD000B3F902105A698A1A48BF1F3252115A8059
:100DE0002C221E4B02FB0533B3F904109A698A1AB0
:100DF00048BF1F3252119A802C22184B02FB053338
:100E0000B3F908101A6A8A1A48BF1F3252111A81A0
:100E10002C22124B02FB053202F10803B3F9021037
:100E2000526A8A1A48BF1F3252115A802C220B4B29
:100E300002FB053505F10803B3F90410AA6A8A1A02
:100E400048BF1F3252119A8007B0BDE8F08F00BF33
:100E5000B6FBFF1FB8FBFF1FC0FBFF1F80F7FF1F84
:100E6000D0FBFF1F3A9DFF1F3C9DFF1FB4FBFF1FE0
:100E700008B5084B1B681BB90020FFF765FF08BDCC
:100E8000012B03D10020FFF7B1FE08BD0020FFF7C2
:100E9000F5FE08BDECFBFF1F2DE9F04107460E46AD
:100EA00015461A4B1C6820464FF07E5115F0AEFCDB
:100EB00048BB3846294615F0E3F90746014615F0C8
:100EC000E1F9134915F0E6FA80463846104915F065
:100ED000E1FA0F4915F0DEFA0146204615F0DAFA7C
:100EE000002115F0CFF90146404615F0CBF9314607
:100EF00015F0C8F90146204615F0CCFA294615F040
:100F0000C1F9BDE8F0810020BDE8F0817092FF1FBB
:100F10006666A63F10B51548012169224FF0FF33E0
:100F20000DF016FC124B187058B9124C23685B6810
:100F30002046114910229847204611F00FFC00204E
:100F400010BD0A4C204608210DF01AFD204608214C
:100F50000DF024FB204600210DF02CFB204608213B
:100F60000DF034FB024B187810BD00BFB0FCFF1F22
:100F70004CF9FF1FC00100202C79010070B51E48FC
:100F80000FF0ECF864200FF079FE1C4C23685B68CE
:100F900020461B4910229847204611F0DFFB194CD0
:100FA0002046012102220EF017F90546164E307038
:100FB00020460EF017F8204610213C220DF0FAFFD3
:100FC000204611214C220DF0F5FF36780F4B104AC8
:100FD000002E0CBF16461E46304616F013FA024687
:100FE000064C23685B68204631469847204611F03E
:100FF000B5FB284670BD00BFF4FFFF1FC0010020F5
:101000007C79010064F9FF1F4CF9FF1F4079010052
:101010006079010038B51D4C23685B6820461C4987
:1010200018229847204611F099FB1A480FF096F8BD
:10103000194D28460EF0A6F9284600210EF0D0F9E9
:101040000A200FF01BFE23685B68204613491D220F
:101050009847204611F082FB28460EF0B9F9104B54
:101060001870104B104D002818BF1D46284616F06A
:10107000C9F9024623685B682046294698472046FE
:1010800011F06CFB064B187838BD00BFC001002082
:10109000CC790100F4FFFF1FC0FBFF1FE8790100BE
:1010A0004CF9FF1F90790100B0790100F8B50546B1
:1010B000254C23685B682046244900229847244A2F
:1010C0002C2303FB05F3D6182046D15E11F092FBCA
:1010D0002368204D5B682046294601229847204618
:1010E000B6F9021011F086FB23685B68204629469A
:1010F000012298472046B6F9041011F07BFB2368C3
:101100005B6820462946012298472046B6F9081018
:1011100011F070FB23685B6820462946012298473E
:101120002046B6F90A1011F065FB23685B6820467B
:101130002946012298472046B6F90C1011F05AFBB7
:10114000204611F00BFBF8BDC0010020BC7B010064
:1011500080F7FF1F087A01002DE9F04F87B001905A
:10116000494C23685B68204648490F22984720462F
:1011700011F0F4FA464A2C23019803FB00F3D1182E
:10118000D35E0293B1F9021003916421009100250E
:101190002E462F46A846A946AA46AB462C2404FB59
:1011A000002401980121FFF763FE3A4A1368059372
:1011B000059A42F210739A4213D9B4F9003002989A
:1011C0001B1A002BB8BF5B42B3F57A7F59DCB4F928
:1011D000023003995B1A002BB8BF5B42B3F57A7FEC
:1011E0004FDCB4F900309B44B4F902309A44B4F9AE
:1011F00004309944B4F906309844B4F908201744EF
:10120000B4F90A201644B4F90C301D4405200FF03F
:1012100035FD009A013A0092C3D12C221C4B019853
:1012200002FB00331C4A82FB0B014FEAEB7BCBEB4A
:101230006111196182FB0A014FEAEA7ACAEB611176
:10124000596182FB09014FEAE979C9EB61119961A2
:1012500082FB08014FEAE878C8EB6111D96182FB93
:101260000701FF17C7EB6111196282FB0601F61730
:10127000C6EB6111596282FB0512ED17C5EB6212D4
:101280009A6207B0BDE8F08FC00100200C7A01001F
:1012900080F7FF1F0C0000201F85EB5170B504463E
:1012A0001646244B1B783BB9234B00221A83234953
:1012B0009962DA619E8570BD084615F097F805467B
:1012C0002046002115F084FA50B920464FF07E5197
:1012D00015F09CFA58BB184BB3F918300BB900E065
:1012E00000242046164915F0D5F815F099FA124B4E
:1012F00018832846002115F06BFA28B928461149B1
:1013000015F084FA10B902E0002500E00D4D2846E2
:101310000D4915F0BFF84FF07C5114F0B3FF15F0F4
:10132000A5FA054B98620022DA619E8570BD4FF0E8
:101330007E54D6E74CF9FF1FF4FBFF1F2E464A00F0
:1013400000FEFF46A655AC464B243E472DE9F04132
:10135000304C23685B6820462F49272298472F4D41
:101360002046296811F046FA204611F0F7F92B685B
:1013700033B9FFF74FFE024618B901222A6004E094
:101380000022264B1B68012B07D1FFF7F7FD002831
:1013900039D10222214B1A6003E0204B1B68022B3B
:1013A00007D1FFF7B7FD28B900221C4B1A60BDE832
:1013B000F0816AB3194C192021780FF06BFA21687B
:1013C000002925DB0025DFF85880002726464FF44A
:1013D000FA74D8F8000001FB04410222FFF75EFF17
:1013E0001E200FF04BFC3168384601FB04410222FD
:1013F000FFF754FF1E200FF041FC01353168A94270
:10140000E5DABDE8F081054B1B68022BD2D1C8E7B5
:10141000BDE8F081C00100201C7A0100ECFBFF1F39
:10142000E492FF1FF8B50C4D00240C4F0C4E2046E3
:1014300014F0DCFF394615F0E1F8314615F02AF8D2
:1014400014F094FB12F02AFB14F0C6FE45F8040FCA
:101450000134C82CEBD1F8BDA0EFFF1F00004843BA
:10146000DB0F4940FFFFFFFF10B50446002115F0D8
:10147000CDF908B904F10044204614F077FB14A319
:10148000D3E9002312F048FC14F0A6FE04461249EA
:1014900015F0BCF940B120460F4914F0F1FE0146A9
:1014A0000D4814F0EDFE044620460B4915F0A6F851
:1014B0000A4914F0EFFF15F0B3F9C828A8BFC820F7
:1014C00020EAE070064B53F8200010BDAFF3008017
:1014D00000000060FB211940DB0F49400000484339
:1014E000A4EFFF1FAFF3008008B50146024814F0D7
:1014F000C7FEFFF7B9FF08BDDB0FC93F054B1B68EF
:10150000834204D0032B14BF002001207047012028
:10151000704700BFEC92FF1F38B5164C23685B681C
:101520002046154918229847204611F017F9002047
:101530002F210FF0AFF9012000210FF0ABF90220AD
:1015400032210FF0A7F903240025204629460FF089
:10155000A1F90134B4F5006FF7D1092006210FF08D
:1015600099F90A20FF210FF095F9182005210FF0B5
:1015700091F938BDC0010020447A010010B4B0F5E3
:101580002D7F09D2064A00EB400013180C78145442
:101590004A785A708A789A705DF8044B704700BF99
:1015A000F8B0FF1F10B4134B83FB0023C217C2EB2C
:1015B00063130A2B1BD8002819DB03EBC302A0EB33
:1015C00002120D48C05C08B1C2F18F020B480C4CEE
:1015D00054F8233003EBC30302EB031202EB420285
:1015E00083180C7884544A785A708A789A705DF817
:1015F000044B7047398EE33838FCFF1FF8B0FF1FEB
:101600008092FF1FB1F52D7F0AD2084A01EB4101FC
:101610005318525C02705A7842709B7883707047FE
:101620000023037043708370704700BFF8B0FF1F42
:1016300010B4184A82FB0132CB17C3EB62120A2A9C
:1016400004D900230370437083701FE0114B83FBA8
:101650000143CC17C4EB631303EBC303A1EB0313E8
:101660000D49895C09B1C3F18F030C490C4C54F846
:10167000222002EBC20203EB021303EB4303CA185E
:10168000CB5C037053784370937883705DF8044BA0
:10169000704700BF398EE33838FCFF1FF8B0FF1FDA
:1016A0008092FF1F70B582B006460C4668463146F0
:1016B000FFF7BEFF9DF800109DF801209DF8023055
:1016C00031B1DC2505FB01F52D120135EDB200E04D
:1016D000002532B1DC2101FB02F212120132D2B23A
:1016E00000E0002233B1DC2101FB03F31B120133C4
:1016F000DBB200E00023207885FA50F5617882FAA9
:1017000051F2A17883FA51F38DF804508DF8052039
:101710008DF80630304601A9FFF730FF02B070BDEA
:10172000F0B583B00C460501EDB20711EEB286F0BC
:10173000FF0208784978A37828B102FB00F0001274
:101740000130C0B200E000208DF8000029B102FB9A
:1017500001F109120131C9B200E000218DF8011038
:101760002BB102FB03F31B120133DBB200E00023B9
:101770008DF8023038466946FFF794FF781C2178CF
:101780006278A378003618BF012629B101FB05F164
:1017900006EB2121C9B200E000218DF804102AB126
:1017A00002FB05F206EB2222D2B200E000228DF805
:1017B00005202BB103FB05F506EB2526F6B200E06C
:1017C00000268DF8066001A9FFF76CFF03B0F0BD9D
:1017D000F0B583B005460C46002115F00DF838B180
:1017E00028464FF07C5114F04DFD15F019F806E035
:1017F00028464FF07C5114F043FD15F011F814F019
:10180000F5FD0146284614F03BFD344914F042FE34
:1018100015F006F80646284615F002F80746F5B218
:10182000EB4394F800E06078A17813F0FF030CBF5D
:1018300000220122BEF1000F06D003FB0EFE02EBD8
:101840002E2E5FFA8EFE01E04FF0000E8DF800E0C4
:1018500028B103FB00F002EB2020C0B200E0002022
:101860008DF8010029B103FB01F302EB2322D2B270
:1018700000E000228DF8022038466946FFF712FF8B
:10188000781C21786278A378003518BF012531B122
:10189000F4B204FB01F105EB2121C9B200E0002103
:1018A0008DF8041032B1F1B201FB02F205EB2222F5
:1018B000D2B200E000228DF8052033B1F6B206FB6B
:1018C00003F305EB2325EDB200E000258DF806506B
:1018D00001A9FFF7E7FE03B0F0BD00BF00007F43A2
:1018E00038B5054600EB4001090140F2D123994289
:1018F00007DC01EB41011248124B194490220EF013
:1019000043FE114C23681B68204606219847236834
:101910001B6820468521984723681B682046902134
:10192000984723681B682046E9B2984723681B68DC
:10193000204600219847024890210FF025FC38BD31
:10194000E0FAFF1FF8B0FF1FB001002038B50024F7
:10195000094D2046FFF7C4FF2B6803EB43031B012F
:1019600002D0013B7FF4FDAF01340F2CF1D1034BCA
:10197000013B7FF4FDAF38BD4492FF1F00EE020033
:1019800070B500238D481A4640F61C041A54C1183D
:101990004A708A700333A342F8D100238748FF249A
:1019A00019461C54C2185170917003333C2BF8D166
:1019B000834B18780FF070F8B8B9824A1368013376
:1019C0001360052B07DD804B1868FFF7C5FB00226D
:1019D0007E4B1A7070BD4FF4FA700FF04FF9794BCF
:1019E0001B68002B00F39880E5E0764B1B68012B09
:1019F00070D1724CFF2384F85A3084F85B3084F83D
:101A00005C3084F8F03084F8F13084F8F230704BB8
:101A10001D6828466F4914F03DFD14F001FF1E308B
:101A200000EB4001631800226254802159709A70C3
:101A3000694B1C6842F228339C4205DD2846674901
:101A400014F020FC624B1860654B9C4205DA604D37
:101A50002868624914F014FC2860624D284621462B
:101A600010F0C8FE284610F079FE00225A4B1A608A
:101A7000574B1C6820464FF07E5114F0C7FE20B132
:101A80004FF07E52524B1A6007E02046002114F0BE
:101A90009FFE10B100224E4B1A604D4C20684FF44F
:101AA00016710222FFF7FAFB1E200FF0E7F8002064
:101AB0004FF416710222FFF7F1FB20684A4914F037
:101AC000E9FC14F0D3FEC1B202200EF0E3FEC82000
:101AD0000FF0D4F83B4B1B68022B80D1434B1E68A0
:101AE0003046002114F092FE10B906F1004000E0EB
:101AF00030463F4914F08AFEB0B93E4B1C68204680
:101B0000002114F083FE10B904F1004000E02046EB
:101B1000374914F07BFE38B92A4B1E6800231A4659
:101B2000264C184680253EE0324B186814F01EF80B
:101B300004460D46304614F019F802460B4620467E
:101B4000294612F0E7F814F047FB0446284914F040
:101B5000A1FC14F065FE194A00F13C0505EB4505B2
:101B60005119002353554B70FF258D703D3000EB0C
:101B70004000111813544B708D7020461E4914F00C
:101B800081FB1E4914F03AFD174914F083FC14F050
:101B90006DFEC1B203200EF07DFE194B1C60322099
:101BA0000FF06CF81BE71855E1184D708870013282
:101BB00003339642F7DCFFF7C9FE70BDF8B0FF1F94
:101BC0007C92FF1FCCFAFF1F78FBFF1F749DFF1F45
:101BD000E492FF1F00004842989DFF1F0AD7A33CD4
:101BE000D8DCFFFFC001002000007F431CDFFF1F87
:101BF0000000204120DFFF1FDB0F4940DB0FC94001
:101C0000349DFF1F38B505460C46C9B20EF042FEA2
:101C1000681CC4F307210EF03DFEA81CC4F3074165
:101C20000EF038FEE81C210E0EF034FE38BD00BF69
:101C3000F8B504460EF018FE0646601C0EF014FEC1
:101C40000746A01C0EF010FE0546E01C0EF00CFE30
:101C50003F02BFB23E442D0425F07F452E4406EBE3
:101C60000060F8BD38B505460EF0FEFD0446681C60
:101C70000EF0FAFD04EB002000B238BD08B5642870
:101C8000B8BF642014F0B2FB054B196814F002FCD5
:101C9000014614F0F7FA14F0C3FD024B186008BDBA
:101CA0005892FF1FD4FAFF1F2DE9F04188B0904BE6
:101CB0001B682C218F4A01FB0322D288013292B289
:101CC000012A1FD88C4A1268092A1BDC8B49096833
:101CD000C1B98B4D2B6801332B600132864B1A60E2
:101CE0000122864B1A60874C20468749FEF72AFE60
:101CF0002046296810F07EFD204610F02FFDFFF7EA
:101D000025FBF2E07B4A2C2101FB03F3D518D05EC2
:101D100014F06CFB80467D4B1860B5F9040014F09C
:101D200065FB07467A4B1860B5F90C00404214F089
:101D30005DFB0446774B1860B5F90800404214F08B
:101D400055FB0546744B1860744E40462146326878
:101D5000FFF7A2F8306005F10048714E3846414661
:101D60003268FFF799F830602046002114F04EFDEC
:101D700008B904F100442846002114F047FD08B1D9
:101D8000294600E04146204614F07CFA04466549A5
:101D900014F03CFD00282FD0634B1B68039303987D
:101DA00014F020FB614B196814F06AFA0146604B8D
:101DB0001B780BB15F4800E05F4814F009FDD8B113
:101DC00001215E4B19700D200EF042FE564B1B6830
:101DD0000493049A5A4B1A6020465A4914F016FD8F
:101DE00000B1584C20464FF07C5114F053FB14F0D6
:101DF00017FDFFF743FF0DE04B4B1B680593059A5A
:101E00004F4B1B68D31AC82B04D94C4B1B78002BA3
:101E100059D12BE0494B1B7843B33C4B18683C4BE2
:101E2000196814F02FFA0446474B1860474914F01C
:101E3000EDFC18B1454A444B1A6007E0204644497E
:101E400014F0C6FC10B1424A3F4B1A603E4C206869
:101E500014F0E6FC0F2300933E4941F288326FF004
:101E60000E0310F03DFE14F0C1FA20602C4B1C68EC
:101E7000394B1868214614F003FA0546002114F086
:101E8000C5FC10B905F1004000E02846334914F0C4
:101E9000BDFC38B1244B1B680793079A304B1A607E
:101EA0002D4B1C60254B1A782E4B1A70244B1A6848
:101EB0002D4B1A60244B1A682C4B1A601B4B1A6866
:101EC0002B4B1A6011E000211C4B197000221E4B95
:101ED0001A600D200EF0BCFD134B1B68069306988C
:101EE00014F080FA114B186094E708B0BDE8F08157
:101EF00078FBFF1F80F7FF1F8C9DFF1FECFBFF1F70
:101F00008CFBFF1FC0010020087B010034F9FF1F7C
:101F100014DFFF1F9CF8FF1F30FCFF1F889DFF1F71
:101F200088B9FF1F0000AF440C00002098F9FF1F84
:101F30002CDFFF1F00001643000096432CF9FF1F03
:101F40000CDFFF1F00007A45C8F2FF1F00409C45D0
:101F500000409CC578ECFFFF9CEFFF1F0000A041F4
:101F600034FCFF1FA0FAFF1FE8FBFF1F44F9FF1F0F
:101F700028DFFF1F2DE9F04188B090480DF014F8DC
:101F800078B18F4C23685B6820468E4916229847AB
:101F9000204610F0E3FB02228B4B1A60FFF7D6F9C4
:101FA00009E18A4B1F682C26894B06FB0736B6F9D8
:101FB0000200400014F01AFA0546864B1860B6F984
:101FC0000400400014F012FA0446834B1860B6F97E
:101FD0000C000028B8BF0330801014F007FA8046C8
:101FE0007E4B18602C227A4B02FB0737B7F90A3078
:101FF00058420028B8BF0330801014F0F7F90746A4
:10200000774B1860774E284641463268FEF744FF0A
:102010003060754E204639463268FEF73DFF30602D
:102020002846002114F0F2FB08B905F100452046CE
:10203000002114F0EBFB10B904F1004100E021464F
:10204000284614F01FF94FF07D5114F023FA04468E
:10205000664914F0DBFB00282FD0654B1B68039307
:10206000039814F0BFF9634B196814F009F901469D
:10207000614B1B780BB1614800E0614814F0A8FB8C
:10208000D8B101215F4B19700D200EF0E1FC584BC7
:102090001B680493049A5C4B1A6020465B4914F059
:1020A000B5FB00B1594C20464FF07C5114F0F2F9C9
:1020B00014F0B6FBFFF7E2FD0DE04D4B1B680593F6
:1020C000059A514B1B68D31AC82B04D94D4B1B786A
:1020D000002B5ED130E04B4B1B78002B2CD03D4BBE
:1020E00018683D4B196814F0CDF84FF07A5114F090
:1020F000D1F90446464B1860464914F087FB18B1E5
:10210000444A434B1A6007E02046434914F060FB01
:1021100010B1414A3E4B1A603D4C206814F080FBE0
:102120000F2300933D4941F288326FF00E0310F007
:10213000D7FC14F05BF920602B4B1C68384B1868F7
:10214000214614F09DF80546002114F05FFB10B9FC
:1021500005F1004000E02846324914F057FB38B141
:10216000234B1B680793079A2F4B1A602C4B1C605C
:10217000244B1A782D4B1A70234B1A682C4B1A607B
:10218000234B1A682B4B1A601A4B1A682A4B1A6099
:1021900011E000211B4B197000221D4B1A600D200D
:1021A0000EF056FC124B1B680693069814F01AF9B1
:1021B000104B18608FE708B0BDE8F08164F9FF1F8D
:1021C000C0010020287B0100ECFBFF1F78FBFF1FF4
:1021D00080F7FF1F34F9FF1F14DFFF1F9CF8FF1F5C
:1021E00030FCFF1F889DFF1F88B9FF1F0000AF4410
:1021F0000C00002098F9FF1F2CDFFF1F0000164382
:10220000000096432CF9FF1F0CDFFF1F0000FA446B
:10221000C8F2FF1F00409C4500409CC578ECFFFFC2
:102220009CEFFF1F0000A04134FCFF1FA0FAFF1F1E
:10223000E8FBFF1F44F9FF1F28DFFF1F2DE9F041D6
:1022400088B08C480CF096F978B98B4C23685B68A1
:1022500020468A4913229847204610F07FFA002230
:10226000874B1A60FFF772F801E1864B1B68864ABC
:102270002C2101FB03F3D618D05E400014F0B6F811
:102280000546824B1860B6F90400400014F0AEF821
:1022900004467F4B1860B6F90A307E4F87FB031265
:1022A000A2EBE37000B214F0A1F880467A4B1860FC
:1022B000B6F9083087FB0327A7EBE37000B214F0F0
:1022C00095F80746754B1860754E284641463268AA
:1022D000FEF7E2FD3060734E204639463268FEF765
:1022E000DBFD30602846002114F090FA08B905F1B2
:1022F00000452046002114F089FA10B904F100418C
:1023000000E02146284613F0BDFF674914F0C2F8EB
:102310000446664914F07AFA00282FD0644B1B68F3
:102320000393039814F05EF8624B196813F0A8FF4A
:102330000146614B1B780BB1604800E0604814F027
:1023400047FAD8B101215F4B19700D200EF080FBC8
:10235000574B1B680493049A5B4B1A6020465B49F9
:1023600014F054FA00B1594C20464FF07C5114F04F
:1023700091F814F055FAFFF781FC0DE04C4B1B6807
:102380000593059A504B1B68D31AC82B04D94D4BA3
:102390001B78002B59D12BE04A4B1B7843B33B4BA6
:1023A00018683B4B196813F06DFF0446484B1860E2
:1023B000484914F02BFA18B1464A454B1A6007E019
:1023C0002046454914F004FA10B1434A404B1A60C4
:1023D0003F4C206814F024FA0F2300933F4941F248
:1023E00088326FF00E0310F07BFB13F0FFFF2060CC
:1023F0002C4B1C683A4B1868214613F041FF0546E8
:10240000002114F003FA10B905F1004000E028465D
:10241000344914F0FBF938B1254B1B680793079A30
:10242000314B1A602E4B1C60264B1A782F4B1A70BA
:10243000254B1A682E4B1A60254B1A682D4B1A60D3
:102440001C4B1A682C4B1A6011E000211D4B1970AF
:1024500000221F4B1A600D200EF0FAFA144B1B6875
:102460000693069813F0BEFF124B186094E708B06D
:10247000BDE8F081B0FCFF1FC0010020407B0100DF
:10248000ECFBFF1F78FBFF1F80F7FF1F34F9FF1FD6
:1024900014DFFF1FABAAAA2A9CF8FF1F30FCFF1F06
:1024A000889DFF1F88B9FF1F3333B33F0000AF443F
:1024B0000C00002098F9FF1F2CDFFF1F00001643BF
:1024C000000096432CF9FF1F0CDFFF1F0000FA44A9
:1024D000C8F2FF1F00409C4500409CC578ECFFFF00
:1024E0009CEFFF1F0000A04134FCFF1FA0FAFF1F5C
:1024F000E8FBFF1F44F9FF1F28DFFF1F10B50E4B3D
:102500001B785BB90D4C23685B6820460C49392267
:102510009847204610F022F9FEF718FF094B1B6878
:1025200013B9FFF7C1FB10BD012B02D1FFF722FD4C
:1025300010BDFFF783FE10BD4CF9FF1FC001002046
:10254000547B0100ECFBFF1F2DE9F84F8B469A46A8
:102550000501104613F04AFF134B196814F04EF8AA
:10256000124F3E68124BB3F80090A945ACBF4FF034
:1025700000094FF001090F4AC6EBC6039B00D418AF
:10258000D550656001232372A4F80AB014F048F90D
:10259000A0810023236184F814A084F81590A5611C
:1025A00001363E60BDE8F88F6892FF1F7892FF1FEA
:1025B000C6FAFF1F30DFFF1F2DE9F84F93460501D4
:1025C000084613F013FF154B196814F017F8144F51
:1025D0003E68144BB3F800A0AA45ACBF4FF0000A08
:1025E0004FF0010A104AC6EBC6039B00D418D55021
:1025F00065604FF0010884F808800023638114F0BF
:102600000FF9A081C4F8108084F814B084F815A0E4
:10261000A56146443E60BDE8F88F00BF6892FF1F89
:102620007892FF1FC6FAFF1F30DFFF1F70B5294BDE
:102630001B68012B4DDC284B1B78002B49D1274B05
:102640001B683C2B07DD1420232110F03FFA234B9D
:102650001A68101A1860224B1868224913F01AFFE2
:102660000546214B1C682046002114F0CFF810B914
:1026700004F1004000E020461C4913F003FE06462A
:102680001B4B1C682046002114F0C0F810B904F15F
:10269000004000E02046314613F0F4FD04460F4BA5
:1026A000186813F0A3FE0146204613F0EBFD044624
:1026B0000020642110F00AFA13F098FE014620462B
:1026C00013F0E0FD14F0ACF8014628460222FEF7B4
:1026D000E5FD70BDBCFBFF1FCCF2FF1F6C92FF1F1E
:1026E000E492FF1FCDCC8C3F1CDFFF1F0000164380
:1026F00020DFFF1FF0B4C0EBC0021F4B03EB8203CF
:102700001B7A002B34D01C4C04EB820254681B4A09
:102710001288A71A002FB8BF7F42194D2E68002ECD
:10272000B8BF7642BD1BA02D0BDDC0EBC000124B25
:1027300003EB80009442D4BF0022012242750023A3
:1027400016E0C0EBC00C0C4800EB8C00407D9442BE
:10275000D4BF0022012290420AD18D4208DB094BEE
:102760001B7823B1B742ACBF0023012300E0002354
:102770001846F0BC704700BF30DFFF1FC6FAFF1FCE
:1027800048FCFF1FA0FAFF1F10B4034600EB4001F6
:10279000194A02EBC102107950B30A46164901EBFF
:1027A000C202107D18BB154A1268082A20D10A46B9
:1027B0005900C81802EBC0000469C068241A033429
:1027C0000F4800680028B8BF404200EB04100B44DB
:1027D00002EBC302B2F902200A4B1B88D31A002B6A
:1027E000B8BF5B42984294BF0020012000E0002067
:1027F0005DF8044B704700BF70FAFF1F48F9FF1FD8
:1028000048FCFF1FC6FAFF1F2DE9F84307461A24AC
:1028100020460EF029F848B11A2400252046294602
:102820000EF038F80134ED2CF8D102E00134252CFB
:10283000EED125200EF018F881463A4B187030B1D1
:10284000002F1FDD80460024002847D00DE0262001
:102850003946FFF7D7F9334B197801312520C9B232
:102860000EF018F80120BDE8F8832625002428463C
:10287000FFF7DEF90646013487424CDD0435444556
:10288000F5DB4BE000263446013C5FFA84F9A500F5
:1028900005F126003946FFF7B5F9224B1B789C421B
:1028A00012DA2A35DFF87C8001342846FFF7C0F9B8
:1028B000074628463146FFF7A5F998F80030043559
:1028C000A34201DD3E46EFE7591C2520C9B20DF0B9
:1028D000E1FF09F10100C0B2BDE8F8834C4511D118
:1028E0004FEA890026303946FFF78CF90D4B1978ED
:1028F00001312520C9B20DF0CDFF09F1FF30C0B282
:10290000BDE8F883FF20BDE8F883FF20BDE8F88329
:10291000FF20BDE8F883FE2CF7DCB5E7FE2CF7DCE2
:10292000DCE700BF3CF9FF1F10B4C0EBC004114A44
:1029300002EB840293891AB2002A0ADD13460E4A7A
:10294000126802FB03F3A1EB93110A4A42F8241028
:102950000CE0C0EBC0001BB25B42074A126802FBEE
:1029600003F301EB9311034A42F820105DF8044B86
:10297000704700BF30DFFF1F5CFAFF1FF0B482B06A
:10298000C0EBC002504B03EB82035A689A611B698B
:10299000002B41D14C49C0EBC0039B00CA18CD5855
:1029A000938956897601B6B2FF2B9CBF1B029BB25E
:1029B000464A12680192019A4FF48C7101FB02F1B0
:1029C00003FB01F3190C8CB2C4F3CA0204F4804473
:1029D000A4B21CB1C2F5FF62073292B2140A3C4B9A
:1029E0001F5DC2F346023B4B33F8143007FB023243
:1029F00092B211F4004F0EBF93B253429BB2C0EBA0
:102A0000C000314A02EB800083F4004306FB03332D
:102A100005EB1343436053E0012B51D1C0EBC003DE
:102A2000294A02EB83039B891AB2002A0EDD26494C
:102A3000C0EBC00292008C181BB2274D2D6805FB1D
:102A400003F38A5802EB931363600EE01E49C0EB58
:102A5000C00292008C181BB25B421F4D2D6805FB13
:102A600003F38A58A2EB93136360C0EBC003164ACA
:102A700002EB83035B68194A1268934205DD18492B
:102A80000988591AB1EBE20F13DB002B18DBC0EBFE
:102A9000C0010D4C04EB8101B1F90C10114C2468FC
:102AA00004FB1133002B0BDA0D4B1B88B3EBE20F49
:102AB00006DAC0EBC000044B03EB80000023037276
:102AC00002B0F0BC704700BF30DFFF1F0C000020D9
:102AD000F47D0100FC7D01005CFAFF1F4892FF1F9E
:102AE000C6FAFF1F5CF9FF1F2DE9F04F83B07B4B47
:102AF0001B68002B40F3EF80794A13687949096815
:102B00005B1A1360002B14DA774BDB68033B40F24F
:102B10004D1000FB03F000F5FA6013F067FC734BF7
:102B2000196813F06BFD13F07BFE6D4B18600127E5
:102B300000E00027694B1B68002B40F3CC806C4CF5
:102B40000026DFF8B8A1DFF8B891DFF8B881254694
:102B500014F8043C002B00F0B780002F47D0654BE1
:102B60001B684D2B43DCC3EBC303634901EB8303B9
:102B70004FF6D8729A81DFF87CB1DBF8000034F9A7
:102B8000061CFFF7D1FEDBF8000034F9061CC0EB91
:102B9000C003594A02EB8303DFF86CC1BCF8002084
:102BA0009142D4BF002201225A750130CBF80000B7
:102BB000C0EBC003DFF840E10EEB830328229A81CB
:102BC000FFF7B2FEDBF80030C3EBC3024A4901EB6A
:102BD000820234F9060CDFF830C1BCF800108842DC
:102BE000D4BF0021012151750133CBF800302B7B7C
:102BF00053B33D4906EB4602D2008B18B3F90230BD
:102C00008A5E991A0029B8BF49429F2907DC06EB62
:102C10004606354B03EBC60300221A755BE0D21A59
:102C200003D4111C18BF012100E0FF2106EB46066A
:102C30002D4A02EBC60249B22A48006800FB01F1A6
:102C400003EBC103538046E035F8080C2B8803EBF7
:102C500083039B009BB235F802CC4FEA4C1C1FFA51
:102C60008CFCFF2B9CBF1B029BB2DAF80020019268
:102C7000019A4FF48C7101FB02F103FB01F3190C73
:102C80008BB2C3F3CA0203F480439BB21BB1C2F5FB
:102C9000FF62073292B24FEA122B19F80B30C2F3DF
:102CA000460238F81BB003FB02B292B211F4004F97
:102CB0000EBF93B253429BB283F400430CFB033329
:102CC00000EB134025F8060C01361834034B1B6843
:102CD000B3423FF73CAF03B0BDE8F08F94FBFF1F5A
:102CE000C4F2FF1F5CF9FF1F70FAFF1F6892FF1FFD
:102CF00078FAFF1F58FAFF1F30DFFF1F0C0000207B
:102D0000F47D0100FC7D0100C6FAFF1F08B50348F1
:102D10004FF42D710A220BF05FFE08BDF8B0FF1FC3
:102D20002DE9F0478EB00A238DF804308DF8053078
:102D30008DF80630AB4B1B784BB1AB4B1B7833B1E6
:102D400000238DF804308DF805308DF80630A74B40
:102D50001B78BBB10022A54B1A70A54B1B68A54A76
:102D600012689A1A142A08DD4FF032098DF804907F
:102D70008DF805908DF8069001E04FF00A099D4A04
:102D8000136001E04FF00A099B4B1B78002B9B4816
:102D90004FF42D7114BF962278220BF04FFE0024C1
:102DA000954D974FDFF870A2A6B22B78002B72D00A
:102DB0003B68013346F29C329342C8BF46F29C33D3
:102DC0003B60A0463B688AFB0310DB17C3EB601037
:102DD0008C4B198804EB21118B4A81FB0223CA1802
:102DE000CB17C3EBE21319448DF8081064238DF858
:102DF00009308DF80A0002A801A90BF013FF834BDC
:102E00001B68002B47DDB6F5807F44D8804AA2FBC3
:102E10000612D20802EB8202A6EB420292B2092A03
:102E200002D0B6F5807F0DD198450BDA0A238DF8D4
:102E30000C308DF80D3014238DF80E30404603A968
:102E4000FEF79CFB714B1B68013B984513D11E207C
:102E5000A0210FF03BFE8DF81400FF238DF81530F4
:102E6000BE238DF8163005A804A90BF0DBFE404602
:102E700004A9FEF783FB674B1B78B3420BD12823D1
:102E80008DF818300A238DF819308DF81A30404625
:102E900006A9FEF773FB264607A82146FEF7B2FBFC
:102EA0009DF81C109DF81D009DF81E202B78ABB3DB
:102EB0009DF804C09DF805E09DF80630BCF1000FB8
:102EC00006D00CEB8C0C4FEADC1C0CF1010C01E081
:102ED0004FF0000CBEF1000F06D00EEB8E0E4FEA45
:102EE000DE1E0EF1010E01E04FF0000E23B103EBE8
:102EF0008303DB09013300E0002381FA5CF180FAEF
:102F00005EF082FA53F28DF820108DF821008DF8D2
:102F10002220304608A9FEF731FB13E001430A43A3
:102F20004A450FD29DF805209DF806309DF8041003
:102F30008DF824108DF825208DF82630204609A91B
:102F4000FEF71CFB0134B4F52D7F7FF42DAF272550
:102F50002C4F3E8805EB26160BA83146FEF752FB98
:102F6000C5F12804C4F387049DF82C10091B9DF8B3
:102F70002D20121B9DF82E301B1B21EAE1718DF8CC
:102F8000281022EAE2728DF8292023EAE3738DF8F3
:102F90002A3030460AA9FEF7F1FA3E88C5EB16162C
:102FA0000DA83146FEF72EFB9DF83420121B9DF82C
:102FB00035301B1B9DF836100C1B22EAE2728DF88F
:102FC000302023EAE3738DF8313024EAE4748DF87D
:102FD000324030460CA9FEF7D1FA013DB9D10EB00E
:102FE000BDE8F087389DFF1F54F9FF1F2C9EFF1F7F
:102FF00018DFFF1F74B9FF1F78B9FF1FF8B0FF1F5C
:1030000084FBFF1FC6FAFF1F81808080D0FAFF1F5C
:10301000CDCCCCCC3CF9FF1FB5814E1B82B0034B0D
:103020001B680193019802B0704700BF0C0000209C
:103030002DE9F041314B1B78002B5CD1304A1368ED
:10304000304909680B44136040F6B732934204DC00
:103050002D4B1A680F321A6025E0FFF7DFFF2B4B6C
:1030600083FB0023C017C0EB231012F06DFD10F09E
:1030700007FE06460F46DFF89080D8F8000012F0F1
:1030800063FD04460D46304639460022204B12F0BF
:10309000C1FD02460B462046294612F009FC13F0FA
:1030A00053F8C8F800001B4B1C681B4B18681B4BDF
:1030B000196813F0E7F81A4913F0E4F80546124BC3
:1030C000186813F093F90146284613F0DBF805461B
:1030D0000B4B1968C91048420FF0F8FC13F086F941
:1030E0000146284613F0CEF813F09AFB014620461D
:1030F0000022FEF7D3F8BDE8F08100BFCCF2FF1F3D
:10310000849DFF1F5CF9FF1F6492FF1F6766666660
:1031100000006940E492FF1F1CDFFF1F20DFFF1F3C
:1031200000800944094B1B68082B0AD1084B1B6817
:10313000002B08DD074A107930B9012B04DD107F20
:103140007047002070470020704700BF48F9FF1FFC
:1031500094FBFF1F70FAFF1F2DE9F04782B0294B47
:103160001868C0F1230000FB00F013F03FF94FF0A6
:103170007A5113F08FF90646002113F029FB00B1B4
:10318000002630464FF07C5113F084F9824600242B
:10319000DFF87490DFF874800027B9F800000011A0
:1031A00013F024F90546204613F020F9314613F0B8
:1031B00071F9414613F022FA0146284613F062F8ED
:1031C000514613F05DF80546394613F015FB90B1F2
:1031D0000C4B1B6803EB830303F1320200238DF8D1
:1031E00004308DF805208DF80630284613F018FBC2
:1031F00001A9FEF7C3F901341E2CCED102B0BDE8FF
:10320000F08700BF18DFFF1FC6FAFF1F0000F04164
:103210002DE9F04F85B04F4B1B68002B40F3968093
:103220004D4C0026DFF84491DFF828A1274623788B
:10323000002B7ED054F8043CD9F80020934278DA71
:10324000002B76DD2269C2EB030888EAE872A2EB64
:10325000E872911EED2974D94DE0B8F1000F04DB3E
:1032600018F1000418BF012400E0FF2464B205FB3C
:103270000434002C32DBD9F800309C422EDAFFF700
:10328000CDFE8346304613F0B1F88046584613F021
:10329000ADF8324913F0B2F90146404612F0F2FFA0
:1032A000FEF722F92E4913F0F5F82E4912F0EAFF45
:1032B000804605EB850013F099F80146404612F070
:1032C000DFFF13F0D3FA8DF8080000238DF80930E2
:1032D0008DF80A30A0B202A9FEF722FA103557F88D
:1032E000043C3C69C4EB030888EAE872A2EBE8728C
:1032F000AA42B2DA019C57F8045C2D11FFF78EFE4A
:1033000006EB601013F072F8FEF7EEF8144913F0B4
:10331000C1F8154912F0B6FF13F0A8FA8DF80C00A9
:1033200000238DF80D308DF80E30284603A9FEF7E6
:1033300025F901361C34DAF80030B3423FF776AF96
:1033400004E0002AD7DB0025019486E705B0BDE83C
:10335000F08F00BF7892FF1F38DFFF1F0000F041A1
:10336000000048420000F042000016434892FF1F50
:103370002DE9F04F83B0464B1B68002B40F384804F
:10338000DFF818B14FF00009DFF814A15C461BF814
:103390000C3C002B70D0DBF800205BF8043CD31A07
:1033A0000333002B68DD37260025FFF737FE804604
:1033B000484613F01BF80746404613F017F88046BE
:1033C00054F8040C13F012F8514613F063F8014658
:1033D000404613F013F90146384612F053FFFEF74A
:1033E00083F82C4913F056F82B4912F04BFF13F0D9
:1033F0003DFAC0B240B106FB00F84FEA282808F1B8
:1034000001085FFA88F801E04FF00008642707FB25
:1034100006F73F120137FFB234F90E0C05EB20100E
:10342000421E40F2B2239A4209D88DF80080002350
:103430008DF801308DF802706946FEF79FF834F977
:103440000E0CC5EB2010421E40F2B2239A4209D85E
:103450008DF8048000238DF805308DF8067001A9E1
:10346000FEF78CF801356436F6B2226854F8043C55
:10347000D31A0333AB4298DC09F101090BF1180BA5
:10348000034B1B684B4581DC03B0BDE8F08F00BFE8
:1034900094FBFF1F0000D2420000164380FAFF1F7A
:1034A000000070412DE9F8434FF42D722C4B1A6047
:1034B0002C4B2D4A1A6001225A619A61002283F82E
:1034C000202083F82120962183F8221027481864B1
:1034D000172058654FF0FF30986583F8602083F817
:1034E000611083F862201C4603F1800915464FF0F5
:1034F0007E574FF00008E561E560A269322000FBCD
:1035000002F012F073FFA06084F8235084F8245076
:10351000012684F82560207D02210DF0CBFA84F885
:103520002660266184F83850E56227636763C4F833
:103530003C8040344C45DED100230D4A13600D4AD7
:1035400013700D4B1A6832441A600C4B03F59661E8
:103550000022DA7518338B42FBD1BDE8F88300BF37
:103560002CFCFF1FE0F7FF1F67668A4233B31B4442
:10357000B0FBFF1F8CF8FF1F74FBFF1FD0F2FF1F73
:103580002DE9F04F85B000EB40023D4B03EBC20349
:10359000DB7D002B70D00024394B03EBC2074FF0CA
:1035A0000008DFF8ECB0DFF8ECA040E0304613F0A4
:1035B00037F9002803DB003018BF012000E0FF20AE
:1035C00040B204FB00F012F011FF0146284612F051
:1035D00059FE0546414613F0FBF838BB294B1868E5
:1035E00012F004FF0146284613F006F9F0B9264B05
:1035F0001B680193019812F0F5FE594612F0FEFF88
:10360000FDF772FF514612F045FF204912F03AFED5
:1036100013F02CF98DF8080014238DF809300023DD
:103620008DF80A30284602A9FEF7D2F80134204668
:1036300012F0DCFE81463D682846796812F020FED3
:103640000646414613F0E2F810B906F1004000E0EA
:103650003046494613F0D0F80028A7D1FF238DF853
:103660000C3000238DF80D308DF80E30284613F005
:10367000D7F803A9FEF716F805B0BDE8F08F00BF34
:10368000D0F2FF1F2CFCFF1F0C000020000016438F
:103690000000C8420000D2422DE9F8430C4601EB7D
:1036A0004102354B03EBC2031B6983425DD0334BB0
:1036B00080011A181F58106912F098FE0646384605
:1036C000314612F0DFFD804604EB44022A4B53F8EA
:1036D0003250294612F0D4FD13F0A2F8002805DB81
:1036E00010F1000918BF4FF0010901E04FF0FF0988
:1036F00004EB4404204B03EBC404646840462146B9
:1037000012F0BEFD13F08CF8002803DB031C18BF79
:10371000012300E0FF234FFA89F25BB29A4227D1DE
:103720003846314612F0ACFD0646294612F0A8FD97
:1037300013F076F8002803DB051C18BF012500E014
:10374000FF253046214612F09BFD13F069F8002852
:1037500003DB031C18BF012300E0FF2368B25BB248
:10376000C01A18BF0120BDE8F8830020BDE8F88327
:103770000120BDE8F88300BFD0F2FF1FE0F7FF1F74
:103780002DE9F04F83B00546264B1B68C3F123009B
:1037900000FB00F012F02AFE4FF07A5112F07AFE90
:1037A0000746002113F014F800B1002738464FF007
:1037B0007C5112F06FFE834600241B4BA80103EBE3
:1037C000000ADFF868904FF0000820301D182046EE
:1037D00012F00CFE394612F05DFE494612F00EFF63
:1037E000DAF8001012F04EFD594612F049FD064677
:1037F000414613F001F870B12B788DF804306B78E6
:103800008DF80530AB788DF80630304613F008F8A7
:1038100001A9FDF7C7FE01341E2CD8D103B0BDE8C5
:10382000F08F00BFB0FBFF1FE0F7FF1F0000F0416B
:103830002DE9F04F85B08146A54B1B68272B01DC95
:10384000FFF79EFFA34B03EB891393F82530002B62
:1038500000F03A819F4B03EB891393F82730002B3C
:1038600040F0BC809B4B03EB891393F82830002B6E
:1038700040F0B480974B03EB891393F838306BB169
:10388000944B03EB8913D86A12F0B0FD924B196880
:1038900012F000FE002112F0B9FF48B90024DFF851
:1038A00034B24FEA89190BEB09074FF000087DE0AD
:1038B0000024884E4FEA891806EB0805DFF818A2A5
:1038C0002F68A86812F0ACFF002805DB10F1000E8D
:1038D00018BF4FF0010E01E04FF0FF0E08F120027B
:1038E000B3186420B15C81FA50F15A7882FA50F230
:1038F0009B78002083FA50F38DF804108DF8052092
:103900008DF806304FFA8EF004FB00F012F06EFDD9
:103910000146384612F0B6FC01A9FDF759FF013403
:10392000204612F063FD0746E86A12F05FFDDAF800
:10393000001012F0AFFD0146384612F049FF002892
:10394000BED1ABE7304612F06BFF002803DB00303E
:1039500018BF012000E0FF2040B204FB00F012F08D
:1039600045FD0146284612F08DFC0546414612F001
:103970002FFFD0B9594B186812F038FD0146284680
:1039800012F03AFF88B909F120020BEB02031BF891
:1039900002208DF808205A788DF809209B788DF840
:1039A0000A30284602A9FDF713FF0134204612F021
:1039B0001DFD82463D682846796812F061FC064686
:1039C000414612F023FF10B906F1004000E03046F6
:1039D000514612F011FF0028B4D175E03D4A4FEA7C
:1039E0008913D118D658086912F000FD04463046F4
:1039F000214612F045FC12F013FF054612F0F6FCCA
:103A000007463046214612F03DFC0146384612F08A
:103A1000E9FE002858D0DFF8BC804FEA891908EB8E
:103A2000090409F1200708EB070618F807E0717888
:103A3000B27894F8283003B3E368294800688342D9
:103A40001BDB002064210FF041F883460020642135
:103A50000FF03CF88246002064210FF037F818F888
:103A600007E08EFA5BFE5FFA8EFE717881FA5AF1FA
:103A7000C9B2B27882FA50F2D2B294F8273043B188
:103A8000FF238DF80C308DF80D3000238DF80E30AB
:103A900005E08DF80CE08DF80D108DF80E2028460D
:103AA00003A9FDF7FFFD0135284612F09FFC0646ED
:103AB000206912F09BFC216812F0E4FB01463046BD
:103AC00012F090FE0028ACD105B0BDE8F08F00BF29
:103AD000B0FBFF1FE0F7FF1FD492FF1F2CFCFF1F5E
:103AE000B892FF1FF8B50446134E00EB4005ED00F9
:103AF000731977595F60D868104B196812F0CAFCC7
:103B0000394612F0BFFB074670510D4B186812F092
:103B10006DFC0146384612F079FE20B93846002186
:103B200012F056FE30B104EB4404034B03EBC40423
:103B30000023E375F8BD00BFD0F2FF1F509DFF1FAB
:103B40002CFCFF1F2DE9F04F87B05A4B1B68002B50
:103B500026DDC820FF210EF0B9FF564C2368C3EBC9
:103B60000312C3EB820300EB8300C0B20290C820B3
:103B7000FF210EF0ABFF2268D3B2C3EB0311C3EBFE
:103B8000810100EB8100C0B20390C3EB4311C3EB92
:103B900081035B00653BDBB20193013A226004E0E4
:103BA0000023019303930A23029300244FF0000A99
:103BB0001FFA84F8A34604A82146FDF739FD9DF8B5
:103BC00010109DF811209DF8123031B1DC2505FB55
:103BD00001F52D120135EDB200E0002532B1DC26F1
:103BE00006FB02F636120136F6B200E0002633B1CB
:103BF000DC2707FB03F73F120137FFB200E0002785
:103C0000092D06D8092E04D8092F02D8019F039E3A
:103C1000029D404612F0E6FB8046274B186841465D
:103C200012F02EFB8146514612F0F0FD08B909F161
:103C30000049214B186C414612F022FB8046514648
:103C400012F0E4FD08B908F100484846414612F078
:103C5000BFFD08B1494600E04146184812F010FB8C
:103C60008046514612F0D2FD90B14046144912F000
:103C7000C5FC12F0D5FDC0B22D1A25EAE575EDB2EE
:103C8000361A26EAE676F6B23F1A27EAE777FFB257
:103C90008DF814508DF815608DF81670584605A9EA
:103CA000FDF780FC0134B4F52D7F81D107B0BDE86C
:103CB000F08F00BF98FBFF1FE0F7FF1F0000F041EF
:103CC000000040400022034B1A600022024B1A60A1
:103CD000704700BF549DFF1F9CF9FF1F2DE9F0475F
:103CE000174BD3F80080B8F1000F20DD154B188872
:103CF000001112F07BFB8246134C00254FF00009A7
:103D000026465046216812F0BBFA0746494612F093
:103D10007DFD10B907F1004000E03846B16812F0AF
:103D200061FD38B901351C344545E9D105E0002075
:103D3000BDE8F0870120BDE8F0870020BDE8F087EE
:103D4000549DFF1FC6FAFF1FA0F8FF1F2DE9F84F73
:103D50003E4B1B68002B77DD3D4C04F10C05002623
:103D60004FF0000BA1463B4BD3F80080E36808EB13
:103D7000030AC4F80CA0A7693846594612F046FD5C
:103D8000C8B1404612F032FB0146384612F078FACC
:103D9000A061594612F01CFD00283DD0216908465B
:103DA00012F070FA01462C4812F028FC12F038FD8F
:103DB000E0602A4F31E02169084612F063FA0746B5
:103DC0004FEAAA2012F012FB0146384612F062FBBD
:103DD0008046FDF789FB07464046214912F05AFB11
:103DE0004FF07F5112F04EFAFDF77EFB0146384648
:103DF00012F048FA074640461A4912F007FD60B132
:103E00002169084612F03EFA0146174812F0F6FB07
:103E100012F006FDE06000E0104F38464FF07C5194
:103E200012F038FBD9F8141012F034FB014655F8A3
:103E3000080C12F027FA45F80C0C01361C351C341E
:103E4000024B1B68B3428DDCBDE8F88F549DFF1F09
:103E5000A0F8FF1F5CF9FF1F00401CC4EC51F83FA5
:103E60000000A0406666E63F00C09EC42DE9F04F0A
:103E70008BB0794B1B68002B40F3EA80DFF8DC81C4
:103E80000A274FF000090B26DFF8CCA14546D8F8E9
:103E9000080012F0C5FCC0F10A040A38844213DAA3
:103EA000286812F0BDFC8DF80C608DF80D608DF85F
:103EB0000E70204403A9FDF775FB0134A86812F0C9
:103EC000AFFC0A38A042EBDC09F10109DAF8003056
:103ED00008F11C080537FFB24B45D7DC002B40F337
:103EE000B780DFF8788108F108094E46454600277B
:103EF0001524DFF864A156F8080C12F091FC8346F3
:103F0000A86812F08DFC8DF810408DF811408DF8E6
:103F10001240C0EB0B0004A9FDF744FB56F8080C57
:103F200012F07EFC8346A86812F07AFC8DF81440EB
:103F30008DF815408DF81640584405A9FDF732FB61
:103F40000137DAF800301C351C36BB42D3DC002BBD
:103F50007EDD0022019276E059F8080C12F060FC38
:103F60008246D8F8080012F05BFCC0EB0A0106A8F4
:103F70002144FDF75DFB9DF818300F2B20D957F831
:103F8000080C12F04DFC8246B06812F049FCC0EB00
:103F90000A0000EB040A0A200EF08CFD28445FFAA8
:103FA00080FB0A200EF086FD8DF81CB028448DF8A9
:103FB0001D000A238DF81E30504607A9FDF7F2FABE
:103FC00057F8080C12F02CFC8246B06812F028FC5E
:103FD0000AEB000108A8091BFDF72AFB9DF8203019
:103FE0000F2B1FD957F8080C12F01AFC8246B06844
:103FF00012F016FC5044C4EB000A0A200EF05AFDE1
:1040000028445FFA80FB0A200EF054FD8DF824B09E
:1040100028448DF825000A238DF82630504609A93A
:10402000FDF7C0FA0134053DEDB20B2C94D1019B94
:104030000133019308F11C0809F11C09064A1368B1
:10404000019A934204DD382501244F46464683E712
:104050000BB0BDE8F08F00BF549DFF1FA0F8FF1FFD
:1040600070B4074D2C68074E26F8340006EBC400E8
:1040700041808280837101342C6070BC704700BF26
:10408000C492FF1FA09DFF1F70B51C4606B20DB263
:10409000104612F0C5FB02B2304629462346FFF710
:1040A000DFFF70BD2DE9F04140F2FF700CF0DCFB4A
:1040B00005460026224B1E60224C23685B68204682
:1040C000214916229847204629460A2233460EF0F7
:1040D00055FB20460EF042FB85B3142D03D8B542A4
:1040E0000DDCBDE8F081174C23685B68204617495A
:1040F0003322984720460EF031FBBDE8F081A5EB56
:1041000085054FEA450808F5FF684FF4FF6400276E
:104110002046FDF7A7FD0646A01CFDF7A3FD0546BA
:10412000201DFDF79FFD12F061F902463046294639
:104130003B46FFF7A9FF063C4445E9D1BDE8F081C5
:10414000C492FF1FC0010020C87B0100E07B01007A
:104150002DE9F04F87B00390494B1B68002B40F3CB
:104160008C804FF00009CDF80890DFF824B10BEBFC
:10417000090A9AF80630039A934273D0BAF90420D8
:10418000404B186839F90B3000FB0230800A12F0FE
:1041900029F90190BAF90230002B63DD00243A4B73
:1041A0001E68204612F022F9019912F069F812F007
:1041B00037FB0028B8BF404290FBF6F306FB130024
:1041C00012F014F90546314A106812F00FF9014651
:1041D000284612F0FDFA30B1304612F007F92946B0
:1041E00012F04EF8054639F90B1004A82144FDF7EA
:1041F0001FFA9DF81080B52303FB08F84FEA182832
:104200008DF810809DF8117003FB07F73F0A8DF8B9
:1042100011709DF8126003FB06F6360A8DF81260E5
:1042200028464FF0824112F02BF8014612F02AF88E
:1042300012F01CFBC0B288FA50F887FA50F786FAE1
:1042400050F639F90B008DF814808DF815708DF843
:104250001660204405A9FDF791F90134BAF902303E
:10426000A3429CDC029B0133029309F10809044B31
:104270001B68029A93423FF77AAF07B0BDE8F08F10
:10428000C492FF1F5CFAFF1FE092FF1F7492FF1F92
:10429000A09DFF1F2DE9F001134B1E68002E20DDAD
:1042A000124B1C88124BD3F80080124BD3F800C07D
:1042B00000231A461048195EB4EB011F0ADBC5182B
:1042C000B5F902703944B4EB011FDCBFB5F9041035
:1042D00008FB01CC01320833B242ECDB054BC3F8DA
:1042E00000C0BDE8F0017047C492FF1FC6FAFF1F6F
:1042F0005CF9FF1FD8FAFF1FA09DFF1F0023044A8F
:104300001370044A13700122034B1A70704700BFE8
:10431000CCF2FF1F94F8FF1F70FBFF1F30B40E4B51
:104320001C68002C11DD0D4B0022197841B153F8A7
:10433000045C2D1A002DB8BF6D42ADB2EF2D07D928
:1043400001321C33A242F0D101E0002100E0002143
:10435000084630BC704700BF7892FF1F38DFFF1F50
:1043600000B583B0014601A8FDF762F99DF806305B
:10437000022B06D19DF80430142B8CBF02200120A3
:1043800000E0002003B05DF804FB00BF10B50C4B4B
:104390001B7823B10B4B188812F028F810BD094B7D
:1043A0001C88094B186812F021F8084B196812F0A4
:1043B00071F812F035FA04EBA01012F017F810BDE6
:1043C000A0FAFF1FC6FAFF1F5CF9FF1F589DFF1FD1
:1043D00038B56E4B1A68101A1860002880F2A48055
:1043E0006B4B1A686B4B1A601E2064210EF06EFB3B
:1043F000664B1860684B1888FFF790FFE8B1002003
:1044000064210EF063FB0A2817DD644B1B683C2B0C
:1044100013DD4FF46170FDF731FC0122604B1A701F
:10442000604B1A685B4B1A604FF496704FF46171E1
:104430000EF04CFB554B186076E04FF07E525A4B15
:104440001A60002064210EF041FB5A2802DD574A11
:10445000554B1A60564B1B68082B3CD1554B1B78AB
:104460005BB1002064210EF031FB3528CCBF4F4AF0
:104470004FF07E524C4B1A602DE0474B1A884E4B42
:10448000B3F902309A4208DD002064210EF01EFBD1
:104490000A2802DD454A444B1A603F4B1A88464BB6
:1044A000B3F90230D31A002BB8BF5B42632B12DC86
:1044B0004FF41670FDF7E2FB0122394B1A70394BAD
:1044C0001A68344B1A604FF496704FF461710EF015
:1044D000FDFA2E4B1860304B18880011013880B25D
:1044E000FFF73EFF0446012802D1344A2E4B1A60E2
:1044F000294B188800111930FFF732FF844202DA85
:104500002A4A294B1A60254B196864310020DC299E
:10451000A8BFDC210EF0DAFA11F068FF224B19680F
:1045200011F0B8FF264B18601A4B1A681D4B1B6818
:104530009A4205D1234A244B1A600122184B1A7063
:10454000224B1B68012B10DD214C2068214911F002
:10455000A1FF05461A4B18681F4911F09BFF014641
:10456000284611F08FFE206038BD194C20681B4989
:1045700011F090FF0546124B1868194911F08AFF97
:104580000146284611F07EFE206038BD7CFBFF1FEF
:1045900054FAFF1FA0EFFF1FC6FAFF1F18DFFF1F0F
:1045A000A0FAFF1F4C92FF1FE892FF1F000080BF80
:1045B00048F9FF1F78B9FF1F70FAFF1F6666A63F14
:1045C000C0FAFF1F000020415892FF1F9C9DFF1F53
:1045D000589DFF1FCDCC4C3FCDCC4C3E3333733F69
:1045E000CDCC4C3D2DE9F8438146194C00254FF0C8
:1045F0000008264614F80C3C1BB3484611F0F6FEA2
:10460000014654F8080C11F03BFE0746414612F0F3
:10461000FDF810B907F1004000E038463668314631
:1046200012F0D6F868B105EB45050A4B03EBC5055A
:104630003846A96811F02EFF314611F0DFFFBDE8C2
:10464000F88301351834C82DD3D10020BDE8F88394
:10465000449EFF1F389EFF1F2DE9F04FADF6443DED
:1046600032248DF800402D268DF8016007258DF845
:10467000025000206946FCF795FF8DF804408DF844
:1046800005608DF80650012001A9FCF78BFF8DF81D
:1046900008408DF809608DF80A50022002A9FCF745
:1046A00081FF8DF80C408DF80D608DF80E500320C1
:1046B00003A9FCF777FF8DF810408DF811608DF895
:1046C0001250042004A9FCF76DFF8DF814408DF8FA
:1046D00015608DF81650052005A9FCF763FF8DF8CD
:1046E00018408DF819608DF81A50062006A9FCF7BD
:1046F00059FF8DF81C408DF81D608DF81E5028461E
:1047000007A9FCF74FFF8DF820408DF821608DF848
:104710002250082008A9FCF745FF8DF824408DF8A9
:1047200025608DF82650092009A9FCF73BFF8DF87C
:1047300028408DF829608DF82A500A200AA9FCF734
:1047400031FF8DF82C408DF82D608DF82E500B2008
:104750000BA9FCF727FF8DF830408DF831608DF8FC
:1047600032500C200CA9FCF71DFF8DF834408DF859
:1047700035608DF836500D200DA9FCF713FF8DF82C
:1047800038408DF839608DF83A500E200EA9FCF7AC
:1047900009FF8DF83C408DF83D608DF83E500F20AC
:1047A0000FA9FCF7FFFE8DF840408DF841608DF8B1
:1047B0004250102010A9FCF7F5FE8DF844408DF80A
:1047C00045608DF84650112011A9FCF7EBFE8DF8DD
:1047D00048408DF8496006258DF84A50122012A9EC
:1047E000FCF7E0FE8DF84C408DF84D608DF84E5092
:1047F000132013A9FCF7D6FE8DF850408DF85160B8
:104800008DF85250142014A9FCF7CCFE8DF85440BA
:104810008DF855608DF85650152015A9FCF7C2FE8D
:104820008DF858408DF8596008258DF85A5016209B
:1048300016A9FCF7B7FE8DF85C408DF85D608DF829
:104840005E50172017A9FCF7ADFE8DF860402E25AD
:104850008DF861500D278DF86270182018A9FCF7AB
:10486000A1FE8DF864408DF865508DF866701920B2
:1048700019A9FCF797FE8DF868408DF869500F274D
:104880008DF86A701A201AA9FCF78CFE8DF86C401E
:104890008DF86D508DF86E701B201BA9FCF782FE01
:1048A0008DF870408DF871508DF872701C201CA925
:1048B000FCF778FE8DF874408DF875508DF87670A1
:1048C0001D201DA9FCF76EFE8DF878408DF87950FB
:1048D0008DF87A701E201EA9FCF764FE8DF87C40CE
:1048E0008DF87D508DF87E701F201FA9FCF75AFEB1
:1048F0008DF880408DF881508DF88270202020A99D
:10490000FCF750FE8DF884408DF885508DF8867048
:10491000212021A9FCF746FE8DF888408DF88950AA
:104920008DF88A70222022A9FCF73CFE8DF88C407D
:104930008DF88D508DF88E70232023A9FCF732FE60
:104940008DF890408DF891508DF89270242024A914
:10495000FCF728FE8DF894408DF895508DF89670F0
:10496000252025A9FCF71EFE8DF898408DF899505A
:104970008DF89A70262026A9FCF714FE8DF89C402D
:104980008DF89D508DF89E70272027A9FCF70AFE10
:104990008DF8A0408DF8A1508DF8A270282028A98C
:1049A000FCF700FE8DF8A4408DF8A5508DF8A67098
:1049B000292029A9FCF7F6FD8DF8A8408DF8A9500B
:1049C0008DF8AA702A202AA9FCF7ECFD8DF8AC40DE
:1049D0008DF8AD508DF8AE702B202BA9FCF7E2FDC1
:1049E0008DF8B0408DF8B1508DF8B2702C202CA904
:1049F000FCF7D8FD8DF8B4408DF8B5508DF8B67041
:104A000030462DA9FCF7CEFD8DF8B8408DF8B95091
:104A10008DF8BA7028462EA9FCF7C4FD8DF8BC406D
:104A20008DF8BD508DF8BE702F202FA9FCF7BAFD70
:104A30008DF8C0408DF8C1508DF8C270302030A97B
:104A4000FCF7B0FD8DF8C4408DF8C5508DF8C670E8
:104A5000312031A9FCF7A6FD4FF031088DF8C88050
:104A60002F268DF8C9600E278DF8CA70204632A90E
:104A7000FCF798FD8DF8CC808DF8CD508DF8CE7078
:104A8000332033A9FCF78EFD30278DF8D0708DF8D8
:104A9000D16011238DF8D230342034A9FCF782FD87
:104AA0008DF8D4808DF8D57012238DF8D63035204E
:104AB00035A9FCF777FD8DF8D8808DF8D9604FF0D7
:104AC000170A8DF8DAA0362036A9FCF76BFD8DF8B1
:104AD000DC808DF8DD608DF8DEA0372037A9FCF78B
:104AE00061FD8DF8E0408DF8E1604FF018098DF818
:104AF000E290382038A9FCF755FD8DF8E4408DF898
:104B0000E5608DF8E690392039A9FCF74BFD8DF86A
:104B1000E8808DF8E96015238DF8EA303A203AA94B
:104B2000FCF740FD8DF8EC408DF8ED7016238DF804
:104B3000EE303B203BA9FCF735FD8DF8F0708DF889
:104B4000F1608DF8F2A03C203CA9FCF72BFD8DF81C
:104B5000F4708DF8F5708DF8F6903D203DA9FCF7C6
:104B600021FD8DF8F8508DF8F9601C258DF8FA506C
:104B70003E203EA9FCF716FD28248DF8FC408DF858
:104B8000FD4015238DF8FE303F203FA9FCF70AFDBC
:104B900024268DF800618DF801411B278DF80271E4
:104BA000402040A9FCF7FEFC8DF804618DF805411A
:104BB0004FF01A038DF80631412041A9FCF7F2FCB1
:104BC0008DF808618DF809418DF80A71422042A9DB
:104BD000FCF7E8FC8DF80C618DF80D418DF80E7135
:104BE000432043A9FCF7DEFC23268DF810618DF8E5
:104BF00011418DF81271442044A9FCF7D3FC8DF8C3
:104C000014618DF815418DF81671452045A9FCF702
:104C1000C9FC22268DF818618DF819418DF81A51BA
:104C2000462046A9FCF7BEFC8DF81C618DF81D419D
:104C30008DF81E51472047A9FCF7B4FC8DF8206180
:104C400027248DF821418DF82251482048A9FCF7EE
:104C5000A9FC8DF824618DF825418DF82651492055
:104C600049A9FCF79FFC4FF0210A8DF828A18DF887
:104C700029414FF01D098DF82A914A204AA9FCF7D5
:104C800091FC8DF82CA18DF82D418DF82E514B20E3
:104C90004BA9FCF787FC4FF020088DF830818DF888
:104CA00031418DF832914C204CA9FCF77BFC8DF8FA
:104CB00034818DF835418DF836914D204DA9FCF7A2
:104CC00071FC8DF838818DF839418DF83A914E207C
:104CD0004EA9FCF767FC8DF83C818DF83D418DF8BD
:104CE0003E914F204FA9FCF75DFC4FF01F0B8DF854
:104CF00040B126248DF841411E268DF84261502096
:104D000050A9FCF74FFC8DF844B18DF845418DF862
:104D10004661512051A9FCF745FC8DF848618DF89A
:104D200049418DF84A61522052A9FCF73BFC8DF8AD
:104D30004C618DF84D418DF84E61532053A9FCF71D
:104D400031FC8DF850618DF851418DF852B15420ED
:104D500054A9FCF727FC8DF854618DF855418DF866
:104D600056B1552055A9FCF71DFC8DF858918DF8CA
:104D700059418DF85AB1562056A9FCF713FC8DF80D
:104D80005C918DF85D418DF85EB1572057A9FCF715
:104D900009FC8DF860518DF861418DF862815820D1
:104DA00058A9FCF7FFFB8DF864518DF865418DF82B
:104DB0006681592059A9FCF7F5FB8DF86851252427
:104DC0008DF869418DF86AA15A205AA9FCF7EAFBCF
:104DD0008DF86C718DF86D418DF86E815B205BA94B
:104DE000FCF7E0FB8DF870718DF871418DF872A1C0
:104DF0005C205CA9FCF7D6FB4FF01A038DF87431E8
:104E00008DF875418DF876A15D205DA9FCF7CAFB90
:104E10004FF01A038DF878318DF879418DF87AA129
:104E20005E205EA9FCF7BEFB83238DF87C31BA2699
:104E30008DF87D61A5238DF87E315FA83221FBF7C7
:104E4000CFFD5F205FA9FCF7ADFB7E278DF8807159
:104E5000BB258DF88151AB248DF8824160A83221A9
:104E6000FBF7BEFD602060A9FCF79CFB8DF8847108
:104E70008DF885518DF8864161A83221FBF7B0FD90
:104E8000612061A9FCF78EFB7D238DF888318DF8B8
:104E900089618DF88A4162A83221FBF7A1FD622069
:104EA00062A9FCF77FFB7C238DF88C316FF0460301
:104EB0008DF88D31AA238DF88E3163A83221FBF74E
:104EC0008FFD632063A9FCF76DFB79238DF890318A
:104ED0006FF047038DF891316FF052038DF89231E6
:104EE00064A83221FBF77CFD642064A9FCF75AFB1F
:104EF00078238DF894316FF048038DF895316FF079
:104F000053038DF8963165A83221FBF769FD6520C2
:104F100065A9FCF747FB4FF0750B8DF898B14FF082
:104F2000B6098DF89991B0258DF89A5166A832216D
:104F3000FBF756FD662066A9FCF734FB8DF89CB1A3
:104F40008DF89D918DF89E5167A83221FBF748FDA1
:104F5000672067A9FCF726FB4FF071088DF8A08148
:104F60004FF0B50A8DF8A1A1B4278DF8A27168A8F9
:104F70003221FBF735FD682068A9FCF713FB8DF89B
:104F8000A4818DF8A5A18DF8A67169A83221FBF73F
:104F900027FD692069A9FCF705FB4FF06E038DF82A
:104FA000A8318DF8A9A16FF048038DF8AA316AA83D
:104FB0003221FBF715FD6A206AA9FCF7F3FA4FF0DE
:104FC0006D0A8DF8ACA18DF8AD718DF8AE916BA81E
:104FD0003221FBF705FD6B206BA9FCF7E3FA69238F
:104FE0008DF8B0318DF8B1716FF046038DF8B231A4
:104FF0006CA83221FBF7F4FC6C206CA9FCF7D2FA08
:1050000068238DF8B431B3238DF8B5316FF04703C1
:105010008DF8B6316DA83221FBF7E2FC50466DA940
:10502000FCF7C0FA4FF067098DF8B891B1278DF8F9
:10503000B9718DF8BA616EA83221FBF7D1FC6E20F0
:105040006EA9FCF7AFFA8DF8BC918DF8BD718DF8A3
:10505000BE616FA83221FBF7C3FC6F206FA9FCF77C
:10506000A1FA62278DF8C0718DF8C151BD268DF867
:10507000C26170A83221FBF7B3FC702070A9FCF765
:1050800091FA8DF8C4718DF8C5518DF8C66171A87B
:105090003221FBF7A5FC404671A9FCF783FA602397
:1050A0008DF8C831AF238DF8C931BE238DF8CA31D0
:1050B00072A83221FBF794FC722072A9FCF772FAF5
:1050C0005F238DF8CC31AE238DF8CD318DF8CE61D4
:1050D00073A83221FBF784FC732073A9FCF762FAF2
:1050E0005C238DF8D0316FF052038DF8D131C0239D
:1050F0008DF8D23174A83221FBF772FC742074A9A8
:10510000FCF750FA5B238DF8D4316FF053038DF820
:10511000D531BF238DF8D63175A83221FBF760FC5D
:10512000584675A9FCF73EFA57258DF8D8518DF8E9
:10513000D941C3238DF8DA3176A83221FBF750FC30
:10514000762076A9FCF72EFA8DF8DC518DF8DD413A
:10515000C3238DF8DE3177A83221FBF741FC77209D
:1051600077A9FCF71FFA54268DF8E0618DF8E1412C
:10517000C7258DF8E25178A83221FBF731FC782061
:1051800078A9FCF70FFA8DF8E4618DF8E5418DF808
:10519000E65179A83221FBF723FC792079A9FCF7A5
:1051A00001FA51238DF8E831AA238DF8E931CA2498
:1051B0008DF8EA417AA83221FBF712FC7A207AA90D
:1051C000FCF7F0F950238DF8EC31A9258DF8ED515D
:1051D000C9238DF8EE317BA83221FBF701FC7B203F
:1051E0007BA9FCF7DFF94C238DF8F0318DF8F151F4
:1051F000CB238DF8F2317CA83221FBF7F1FB7C2028
:105200007CA9FCF7CFF94B238DF8F4316FF05703ED
:105210008DF8F5318DF8F6417DA83221FBF7E0FBE2
:105220007D207DA9FCF7BEF949258DF8F8514FF096
:10523000A7098DF8F991CD248DF8FA417EA8322185
:10524000FBF7CEFB7E207EA9FCF7ACF98DF8FC5174
:105250008DF8FD918DF8FE417FA83221FBF7C0FB50
:105260007F207FA9FCF79EF944258DF800526FF04E
:105270005A038DF80132D0248DF8024280A83221E1
:10528000FBF7AEFB802080A9FCF78CF98DF8045267
:105290006FF05A038DF805328DF8064281A832214D
:1052A000FBF79EFB812081A9FCF77CF942238DF856
:1052B00008326FF05B038DF80932D1238DF80A3282
:1052C00082A83221FBF78CFB822082A9FCF76AF9C5
:1052D00041238DF80C326FF05C038DF80D328DF8A0
:1052E0000E4283A83221FBF77BFB832083A9FCF7C6
:1052F00059F93E238DF810326FF05D038DF81132AD
:10530000D3238DF8123284A83221FBF769FB842065
:1053100084A9FCF747F93D238DF81432A1268DF8B6
:105320001562D2238DF8163285A83221FBF758FB7F
:10533000852085A9FCF736F93A238DF818326FF0ED
:105340005D038DF81932D7238DF81A3286A83221E1
:10535000FBF746FB862086A9FCF724F939238DF854
:105360001C328DF81D62D6238DF81E3287A832219B
:10537000FBF736FB872087A9FCF714F937238DF854
:1053800020328DF82162DB238DF8223288A8322169
:10539000FBF726FB882088A9FCF704F936238DF853
:1053A00024326FF05F038DF82532DA238DF8263230
:1053B00089A83221FBF714FB892089A9FCF7F2F8B0
:1053C00033238DF828326FF060038DF82932DD2702
:1053D0008DF82A728AA83221FBF702FB8A208AA95B
:1053E000FCF7E0F832248DF82C426FF061038DF861
:1053F0002D32DC238DF82E328BA82146FBF7F0FAF4
:105400008B208BA9FCF7CEF84FF02D088DF8308259
:105410009D258DF831528DF832728CA82146FBF70C
:10542000DFFA8C208CA9FCF7BDF88DF834828DF85A
:1054300035528DF836728DA82146FBF7D1FA8D20B2
:105440008DA9FCF7AFF84FF02C088DF838828DF855
:105450003952E1278DF83A728EA82146FBF7C0FA3F
:105460008E208EA9FCF79EF88DF83C828DF83D5277
:105470008DF83E728FA82146FBF7B2FA8F208FA9D4
:10548000FCF790F827238DF840326FF064038DF815
:1054900041324FF0E4088DF8428290A82146FBF794
:1054A0009FFA902090A9FCF77DF826238DF84432CE
:1054B0006FF065038DF84532E3238DF8463291A8ED
:1054C0002146FBF78DFA912091A9FCF76BF84FF07C
:1054D000250A8DF848A299278DF849728DF84A82DD
:1054E00092A82146FBF77CFA922092A9FCF75AF881
:1054F0008DF84CA28DF84D728DF84E8293A82146FE
:10550000FBF76EFA932093A9FCF74CF84FF0220BAF
:105510008DF850B24FF097088DF851824FF0E60A9F
:105520008DF852A294A82146FBF75AFA942094A928
:10553000FCF738F88DF854B28DF855828DF856A2E4
:1055400095A82146FBF74CFA952095A9FCF72AF877
:105550001F238DF858324FF0960A8DF859A2EA238E
:105560008DF85A3296A82146FBF73AFA504696A98A
:10557000FCF718F81E238DF85C3295238DF85D3208
:10558000E9238DF85E3297A82146FBF729FA4046B9
:1055900097A9FCF707F84FF01B0B8DF860B24FF09E
:1055A000940A8DF861A24FF0ED088DF8628298A8F8
:1055B0002146FBF715FA982098A9FBF7F3FF8DF821
:1055C00064B28DF865A28DF8668299A82146FBF732
:1055D00007FA384699A9FBF7E5FF18238DF86832DA
:1055E00093238DF86932F0278DF86A729AA82146C4
:1055F000FBF7F6F99A209AA9FBF7D4FF17238DF849
:105600006C3292238DF86D32EF238DF86E329BA8A9
:105610002146FBF7E5F99B209BA9FBF7C3FF152368
:105620008DF8703291238DF87132F1238DF872323A
:105630009CA82146FBF7D4F99C209CA9FBF7B2FF5C
:1056400014238DF8743290238DF875328DF87672AC
:105650009DA82146FBF7C4F928469DA9FBF7A2FFA8
:105660004FF011088DF878828F278DF87972F32525
:105670008DF87A529EA82146FBF7B2F99E209EA98A
:10568000FBF790FF8DF87C828DF87D728DF87E524D
:105690009FA82146FBF7A4F99F209FA9FBF782FF53
:1056A0004FF00E088DF880828D278DF88172F425D9
:1056B0008DF88252A0A82146FBF792F9A020A0A95C
:1056C000FBF770FF8DF884828DF885728DF8865215
:1056D000A1A82146FBF784F93046A1A9FBF762FF98
:1056E0000A238DF888328DF88972F5238DF88A3275
:1056F000A2A82146FBF774F9A220A2A9FBF752FF4A
:1057000009238DF88C328C238DF88D328DF88E52D2
:10571000A3A82146FBF764F9A320A3A9FBF742FF46
:1057200007238DF890328B238DF89132F8238DF872
:105730009232A4A82146FBF753F9A420A4A9FBF7B1
:1057400031FF06238DF894328A258DF89552F72380
:105750008DF89632A5A82146FBF742F9A520A5A908
:10576000FBF720FF02278DF898728DF89952FA26E0
:105770008DF89A62A6A82146FBF732F9A620A6A9C1
:10578000FBF710FF8DF89C728DF89D528DF89E628C
:10579000A7A82146FBF724F94846A7A9FBF702FF73
:1057A00000258DF8A05289238DF8A132FD238DF8B4
:1057B000A232A8A82146FBF713F9A820A8A9FBF755
:1057C000F1FE8DF8A45289238DF8A532FD258DF8C0
:1057D000A652A9A82146FBF703F9A920A9A9FBF71E
:1057E000E1FE00248DF8A84288238DF8A932FE2618
:1057F0008DF8AA62AAA83221FBF7F2F8AA20AAA97A
:10580000FBF7D0FE8DF8AC4287278DF8AD728DF88E
:10581000AE52ABA83221FBF7E3F8AB20ABA9FBF704
:10582000C1FE8DF8B0428DF8B1724FF0FF098DF8CE
:10583000B292ACA83221FBF7D3F8AC20ACA9FBF7AD
:10584000B1FE8DF8B4428DF8B5728DF8B692ADA860
:105850003221FBF7C5F8AD20ADA9FBF7A3FE8DF80B
:10586000B84286278DF8B9724FF0FC088DF8BA82DD
:10587000AEA83221FBF7B4F8AE20AEA9FBF792FE3A
:105880008DF8BC428DF8BD728DF8BE82AFA8322172
:10589000FBF7A6F8AF20AFA9FBF784FE8DF8C04256
:1058A0008DF8C1728DF8C292B0A83221FBF798F83A
:1058B000B020B0A9FBF776FE8DF8C4428DF8C57212
:1058C0008DF8C692B1A83221FBF78AF8B120B1A9B0
:1058D000FBF768FE8DF8C8428DF8C9728DF8CA9240
:1058E000B2A83221FBF77CF8B220B2A9FBF75AFE2E
:1058F0008DF8CC4285278DF8CD728DF8CE62B3A895
:105900003221FBF76DF8B320B3A9FBF74BFE8DF8FE
:10591000D0428DF8D1728DF8D262B4A83221FBF753
:105920005FF8B420B4A9FBF73DFE8DF8D4428DF8A2
:10593000D5728DF8D662B5A83221FBF751F8B520A3
:10594000B5A9FBF72FFE8DF8D8428DF8D9728DF8E6
:10595000DA62B6A83221FBF743F8B620B6A9FBF706
:1059600021FE8DF8DC424FF0840A8DF8DDA28DF81F
:10597000DE52B7A83221FBF733F8B720B7A9FBF7FF
:1059800011FE8DF8E0428DF8E1728DF8E262B8A860
:105990003221FBF725F8B820B8A9FBF703FE8DF8F4
:1059A000E4428DF8E5728DF8E662B9A83221FBF782
:1059B00017F8B920B9A9FBF7F5FD8DF8E8428DF885
:1059C000E9728DF8EA62BAA83221FBF709F8BA2029
:1059D000BAA9FBF7E7FD8DF8EC428DF8ED728DF872
:1059E000EE62BBA83221FAF7FBFFBB20BBA9FBF795
:1059F000D9FD8DF8F0428DF8F1A28DF8F252BCA8D5
:105A00003221FAF7EDFFBC20BCA9FBF7CBFD8DF8E6
:105A1000F4428DF8F5A28DF8F652BDA83221FAF7BE
:105A2000DFFFBD20BDA9FBF7BDFD8DF8F8428DF865
:105A3000F9A28DF8FA52BEA83221FAF7D1FFBE20A2
:105A4000BEA9FBF7AFFD8DF8FC428DF8FDA28DF8E5
:105A5000FE52BFA83221FAF7C3FFBF20BFA9FBF750
:105A6000A1FD8DF8004381278DF801738DF8025355
:105A7000C0A83221FAF7B4FFC020C0A9FBF792FDFD
:105A80008DF804438DF805738DF80653C1A83221B3
:105A9000FAF7A6FFC120C1A9FBF784FD8DF80843E2
:105AA0008DF809738DF80A53C2A83221FAF798FFCE
:105AB000C220C2A9FBF776FD8DF80C438DF80D735B
:105AC0008DF80E53C3A83221FAF78AFFC320C3A969
:105AD000FBF768FD8DF810438DF811738DF81253A4
